:020000040000FA
:10100000C00D0020D510000011370000C52A0000D7
:1010100000000000000000000000000000000000D0
:10102000000000000000000000000000A73B0000DE
:10103000000000000000000025390000993E00007B
:10104000DD290000DF290000E1290000E32900007C
:10105000E5290000E7100000E1250000E71000008E
:10106000E7100000C145000045280000E71000001F
:1010700011210000211C0000E7100000CD420000FB
:10108000CF420000E7100000E7100000E71000006A
:10109000DD3F0000E7100000E710000051450000B0
:1010A000ED2A0000E7100000A53B0000E71000005B
:1010B000E7100000E7100000E7100000912F00008B
:1010C0000348854600F0BCFB00480047C5450000CA
:1010D000C00D00200448804704480047FEE7FEE7B3
:1010E000FEE7FEE7FEE7FEE7993F0000C1100000C3
:1010F00030B50B46014600202022012409E00D46B0
:10110000D5409D4205D31D469540491B2546954037
:1011100040191546521E002DF1DC30BDD2B201E05F
:101120000270401C491EFBD270470022F6E710B542
:1011300013460A4604461946FFF7F0FF204610BD45
:10114000024670B54A40D30FDB0740002DD04A005D
:101150002AD0010E140E000212020919400A520A86
:101160008418E50104465443000A120A2E04504331
:10117000A4194219200CC543AA18120C0125AD036D
:10118000521C521912047F39240400D0521C1043FF
:1011900001D44000491EC2B20C06C0092018401CF0
:1011A0004008802A02D003E0002070BD40084000C3
:1011B000002900DA0020184370BD70B502464A408D
:1011C000D50F40004A00ED0740085208002814D00F
:1011D000002A12D0C40DD30D41020120C0055202D5
:1011E000490A520AE41A091812187D34914201D3AF
:1011F000641C00E04900002C01DA002070BD0023CF
:10120000914201D3891A0343400849000028F7D1CD
:1012100000290AD0914202D10121C90705E091427B
:1012200001D2012101E00121C943E005C0184019A4
:1012300000F066FA70BD0000F0B507460846584059
:1012400087B0C00F049048000E4659004008490876
:10125000BC1A884105D2384631461E4617460B4611
:1012600002465800400810434CD0300D0390400512
:101270005900400D490D0590401A0290402872DA3D
:1012800018030121000B09050843019004980092FE
:10129000002805D001995242002088410092019017
:1012A000029840210A1A0199009800F0F5F90546C4
:1012B0000C466B4607CB00F010FAC0197141039A37
:1012C0000E0D0023D71756401A467A40164344D0D5
:1012D000049A002A2DD0029A012A039A15DC1205DD
:1012E000C01A914101263605001C7141D20F059E9E
:1012F000D2070093019202962A46234600F04EFA46
:1013000007B0F0BD38463146FAE71605224A0F46C7
:10131000B218C01AB74101210905001C4F4100183D
:101320007F41114618187941E20F10436D1964414D
:1013300013E0E2076D0815436408C2071443039ADB
:1013400001261205C01A91413605001C7141CE07D5
:10135000400830434908C01851412A46234600F04E
:1013600010FACDE7FFE7049801224000C117121AD6
:1013700000238B4104983146C417381AA141EEE787
:1013800030B40124E407634030BC55E730B4012495
:10139000E407614030BC4FE70000E0FFF0B51FB448
:1013A00088B00B990998002448400999C00F49005A
:1013B00049080991C0070B990090490049080B9111
:1013C00009990898A64608431CD00B990A98084327
:1013D00018D0099801244000420D4800410D099899
:1013E00024050003000B204309900B980003000B19
:1013F00020430B9050181C494018002201901446BD
:10140000104605E0002001460DB0F0BD032801DACA
:10141000034600E003239C46C11A0AAE0AE05F00BF
:1014200008ADED5B4F00F75B7D430027AA187C41B8
:10143000491C5B1E6145F2DD410004AB5A52210498
:10144000120C0A43240C401C0828DFDB0198029090
:101450000099704601910090059B049A079906989F
:1014600000F09CF9D0E700000DFCFFFFF0B50C4642
:101470005C4085B0E40FE40703944C000026640848
:1014800059009446490802460296224321D06246FA
:101490000A431ED06200570D4A000E032303550D68
:1014A000012402462C492405781B1B0B360B4018DF
:1014B00023432643614600901C46501AB44103D38F
:1014C0000098401C009002E0921800985B410028B0
:1014D00003DA0020014605B0F0BD00200121090516
:1014E0000746864611E064461D46141BB54106D3E7
:1014F0006546521BB341744607430C43A646CD07CD
:1015000040084908284392185B4105460D43EAD13B
:101510001046184313D060461946504071400843A6
:1015200006D06046101AB34106D20122002306E01D
:1015300000220123DB0702E00122D243531000986E
:1015400074460105381C6141029C039D00196941E4
:1015500000F017F9BFE70000FD030000C217C10F3C
:10156000504010B54018CA079623002100F0D0F86B
:1015700010BD00000EB5C217C10F5040CA07401879
:101580000021054B0293019200910A460B4600F0A0
:1015900005F903B000BD0000330400000EB5054995
:1015A0000291002100910A460B46019100F0F6F8E5
:1015B00003B000BD33040000C20F4100400201230C
:1015C000400ADB05D207090EC0187F2901DA002086
:1015D0007047962903DC9623591AC84001E09639D2
:1015E0008840002AF4D04042704741004002012266
:1015F000400AD205090E80187F2901DA00207047C1
:10160000962903DC9622511AC840704796398840C3
:101610007047000070B5CD0F4A0009030123090B84
:101620001B0519430B4BED070024520D9A4201DABA
:10163000002070BD074B34339A4203DC9A1A00F045
:101640003BF802E00449511888402C43F1D0404255
:1016500070BD0000FF030000CDFBFFFF4A0009033F
:101660000123090B1B051943094B10B5520D9A4272
:1016700001DA002010BD064B34339A4203DC9A1A7B
:1016800000F01AF810BD03495118884010BD000041
:10169000FF030000CDFBFFFF10B5202A04DB01464D
:1016A000203A9140002010BD914020239C1A03460F
:1016B000E3401943904010BD10B5202A04DB0846D2
:1016C000203AD040002110BD0B46D340D04020240A
:1016D000A21A91400843194610BD10B5202A06DB16
:1016E000CB170846203A1041C1170B4306E00B46C2
:1016F0001341D0402024A21A91400843194610BD3E
:10170000002904DA401C490001D14008400070471C
:1017100070B40024050C05D11024000402D1002966
:1017200021D01124050E01D100020834050F01D18A
:101730000001241D850F01D18000A41C002801DBBD
:101740004000641C002908D020252E1B0D46F540C2
:10175000A14000D001212943084301061B1B000AB8
:10176000DB1D02D5002070BC7047DB0518188018FF
:101770000029F8DA401C4900F5D170BC400840004F
:10178000704710B5002B08DA0024401C6141921804
:101790005B411A4301D14008400010BDF0B51FB4B1
:1017A00082B005460C0003D0084603F057F802E06B
:1017B00003F054F820300246009021462846FFF7F7
:1017C0006BFF049B059A04460F46184311430843D8
:1017D00014D0184610431BD0009840210A1A18460E
:1017E0000599FFF769FF05460E46009A059904988A
:1017F000FFF752FF084305D0012004E02046394698
:1018000007B0F0BD0020C11705430E432C433743FA
:1018100000990E986305401A7905E40A00220C43EA
:10182000FD0A0A3002D500200146E9E7010510193A
:1018300069410C9C0D9D00196941FFF7A2FFDFE78C
:10184000064C0125064E05E0E36807CC2B430C3C13
:1018500098471034B442F7D3FFF736FCA84800008D
:10186000C848000001218140024802680A43026022
:101870007047C0463400004DC44A552353610128C7
:1018800006D000280CD1106803239843106004E0B0
:1018900010680C239843106089001068084310609A
:1018A000002050617047C046B0B5F14B55241C6014
:1018B0001C46203C012803D000280CD11C46303C9B
:1018C00007208002256885432560080391020143B3
:1018D00020680843206000201860B0BD10B54D237B
:1018E0001B0655249C6301280DD0002817D11868C9
:1018F0000F24A0431860481E02281CD81868012431
:1019000004431C600EE018690F24A0431861481EB0
:10191000022810D81869012404431C6102E0481E03
:10192000022808D8186A3F24A0431862080110430F
:10193000196A014319620020986310BD4D221206F6
:101940005523936301280AD0002810D11068702312
:1019500098431060080111680143116007E01069A5
:10196000702398431061080111690143116100203F
:10197000906370474D21090655228A63012807D0DC
:1019800000280AD1012080030A6882430A6004E02B
:10199000012080030A6982430A610020886370473E
:1019A0009E4A55235363012811D000281DD10120E0
:1019B0000002136883431360080211680143116039
:1019C0000320C14353584003184350500DE00120F9
:1019D0000002136983431361080211690143116115
:1019E00003204003D1680143D16000205063704759
:1019F000F0B587B00027012845D0002800D094E03A
:101A00000190002601213046FFF7CAFF984C55206F
:101A1000049020603320C54360591F2188436051E2
:101A20002B20C043AA21215026600596304600F0A5
:101A300023F96420039001E00698401E0690069862
:101A40000028F9D1059E304600F0D8F8029004989D
:101A5000206060593043605105982060039801E090
:101A60000698401E069006980028F9D100273846AF
:101A700000F0C4F8029981424FD1761C202EE6D3A3
:101A80000198012851D1012420462146FFF788FF03
:101A9000774D5520059028602320C643A8591F2163
:101AA0008843A8511B20C043AA2129500020286048
:101AB000204600F0E1F86420049001E00698401E02
:101AC000069006980028F9D1012000F097F80390BD
:101AD0000024029405982860A8592043A851029830
:101AE0002860049801E00698401E06900698002899
:101AF000F9D1012000F082F80399814204D1641CDD
:101B00000027202CE6D310E001252846FFF732FFFE
:101B1000284600F0C7F8274607E000242046FFF7D4
:101B200029FF204600F0BEF83746384607B0F0BD22
:101B3000B0B54F4A5523136013461C3B1446243C52
:101B4000012805D000280DD113462C3B1446343C07
:101B500020681F25A8432060294020680843206092
:101B6000AA20186000201060B0BDC0460749552269
:101B70004A612022012802D0002803D110220868DF
:101B800010430860002048617047C0462400004DA3
:101B900010B5374A552313601346203B012803D064
:101BA00000280CD11346303B18680F24A04318605E
:101BB00021401868084301210902014319600020EF
:101BC000106010BD054955220A6101228240086853
:101BD00010430860002008617047C0462800004D8F
:101BE0000146012002468A40034909681140002944
:101BF00000D108467047C0463000004D0146074AF4
:101C0000134610330020012902D0002904D11346C5
:101C10001868410A012008407047C0460400004D82
:101C2000F0B581B0114E3768C248046810480568A5
:101C30000020FFF7D5FF00280ED03F20000201F062
:101C40009FFC0020FFF70EFE01F065FE0120400220
:101C500008490A8802430A80B8B23060A0B2B54988
:101C60000860A8B20249086001B0F0BD7800804A5F
:101C70003800004D540200204D21090655228A6388
:101C8000012807D000280AD10120C0030A680243B6
:101C90000A6004E00120C0030A6902430A610020CF
:101CA000886370474D21090655228A63012807D0B1
:101CB00000280AD10120C0030A6882430A6004E0B8
:101CC0000120C0030A6982430A61002088637047CB
:101CD000B0B59B23DB055524DC621C68054D25400F
:101CE0001D60084310431968014319600020D86241
:101CF000B0BDC046C7CFFFFF7E4955220A610A68C2
:101D000082430A60002008617047C0468949552215
:101D10000A60CA688243CA60002008607047C046F3
:101D200010B5EE4955224A62ED4A904200DD92E03C
:101D30008038802800D98BE04000C04678448088F5
:101D4000400087448000800080008000850085007E
:101D5000850085008500850085008500850085005B
:101D6000850085008000800080008000850085005F
:101D7000850085008500850085008500850085003B
:101D8000850085008000800080008000850085003F
:101D9000850085008500850085008500850085001B
:101DA000850085008000800080008000850085001F
:101DB00085008500850085008500850085008500FB
:101DC00085008500800080008000800085008500FF
:101DD00085008500850085008500850085008500DB
:101DE00085008500800080008000800085008500DF
:101DF00085008500850085008500850085008500BB
:101E000085008500850085008500850085008500AA
:101E1000850085008500850085008500850085009A
:101E2000850085008500850085008500850085008A
:101E3000850085008500850085008500850085007A
:101E400085008500B6001E4A803208681040086090
:101E50000020486210BD194AA24B984210DDA24BE7
:101E6000984216DD0D231B039842EED00322120484
:101E7000904203D0012252049042E9D1124AE4E791
:101E80009A4B98420CDC01235C02A04213D0DB0386
:101E90000CE00B231B039842D7D003239B0305E0E0
:101EA00009231B039842D0D005235B039842CCD072
:101EB000CEE7034AC9E7034AC7E7C046FF7FFFFFF3
:101EC000FFFEFFFFFFFDFFFFFFFFFDFFE048552185
:101ED00081620168022291430160002181627047A2
:101EE000044955220A610A6802430A600020086119
:101EF0007047C0461C00804DA74955220A608A6879
:101F000002438A60002008607047C046A2495522FB
:101F10000A60CA680243CA60002008607047C04671
:101F20009D4955220A604A6802434A6000200860C1
:101F30007047C0462C00804D684955224A62684A65
:101F4000904200DD90E00246803A802A00D9C2E04B
:101F50005200C0467A449288520097448000800024
:101F600080008000BC00BC00BC00BC00BC00BC0009
:101F7000BC00BC00BC00BC00BC00BC0080008000F9
:101F800080008000BC00BC00BC00BC00BC00BC00E9
:101F9000BC00BC00BC00BC00BC00BC0080008000D9
:101FA00080008000BC00BC00BC00BC00BC00BC00C9
:101FB000BC00BC00BC00BC00BC00BC0080008000B9
:101FC00080008000BC00BC00BC00BC00BC00BC00A9
:101FD000BC00BC00BC00BC00BC00BC008000800099
:101FE00080008000BC00BC00BC00BC00BC00BC0089
:101FF000BC00BC00BC00BC00BC00BC008000800079
:1020000080008000BC00BC00BC00BC00BC00BC0068
:10201000BC00BC00BC00BC00BC00BC00BC00BC00E0
:10202000BC00BC00BC00BC00BC00BC00BC00BC00D0
:10203000BC00BC00BC00BC00BC00BC00BC00BC00C0
:10204000BC00BC00BC00BC00BC00BC00BC00BC00B0
:10205000BC00BC00BC00BC00BC00BC00B9000A68ED
:1020600073239A430A6033E01E4A90420FDD1E4AF2
:10207000904217DD03221204904229D0012252041B
:10208000904225D00D22120390421CD023E0174A23
:10209000904210DC01225302984219D0D2039042A0
:1020A00011D018E00B22120390420CD003229203AD
:1020B000904208D00FE009221203904203D005227B
:1020C0005203904207D1072212030B6893430B601F
:1020D0000A6802430A600020486270470800804D89
:1020E000FF010000FFAF0000FFCF0000FF8F0000E6
:1020F00080000149405870478000804D5448552168
:102100008162016880220A43026000218162704777
:10211000F0B581B01F4804681F4D2E681F4807683E
:102120000720C0432858552129600321C9430022B4
:10213000D3436B502A600121890508421FD099487A
:1021400000780938C0B2012819D8142000F090FC9A
:102150001349C882152000F08BFC11490883162012
:1021600000F086FC0E4948830E48007800F072F8B3
:10217000C020EC49085C012801D101F00BFCA0B2A1
:10218000E9490860B0B22860B8B20449086001B0FB
:10219000F0BDC0467800804A2C00804D3800004DCC
:1021A000440400202805002010B50124E00601F0B9
:1021B00085FD0320020308202146FFF789FD094819
:1021C00044608460046044638463C46344642004A2
:1021D00000F00AF800F017F800F020F8FFF776FE9C
:1021E00010BDC0466C0000509B21C9055522CA6233
:1021F000072212040B6893430B600A6802430A60CB
:102200000020C86270479B20C0055521C16201684B
:1022100010220A4302600021C16270470C48552118
:102220008162026801210A43026000228262026820
:102230000A42FCD17047C046054955228A62C860EF
:102240000868802202430A60002088627047C04606
:102250000400804D70B5C022D14B00249C541D7ADF
:10226000032D00D087E0B24D2D780D2D00D982E0EE
:102270000126AE4027252D022E427CD05D78002815
:1022800015D0052D77D8A80001A528588746C04647
:10229000A9220000DB220000F3220000F922000046
:1022A000FF22000005230000488B0D8B6EE0052DFA
:1022B00061D8A80001A528588746C046D52200004D
:1022C0000B230000232300003B23000053230000C6
:1022D00089230000088BCD8A01E0C88A0D8B28185D
:1022E0008009314D2D784543A8B2498B081A3249EF
:1022F0003AE0C88A4D8B0AE0088B4D8B13E0088BBF
:10230000CD8A1CE0488BCD8A25E0488BCD8A2818E1
:102310008009284D2D784543A8B2098B081A234916
:102320003DE0488B0D8B281880091F4D2D784543C3
:10233000A8B2C98A081A214916E0C88A0D8B281844
:1023400080091C4D2D784543A8B2498B081A1A49BB
:1023500025E0C88A4D8B28188009134D2D784543F8
:10236000A8B2098B081A11490860012803DB10483C
:102370000178491C01700E480178022902D301211D
:1023800099540470985C70BD088B4D8B2818800997
:10239000084D2D784543A8B2C98A081A0749086034
:1023A000E9D5E4E7040500201400002050000020D7
:1023B0004800002000000020540000204C000020B5
:1023C00010B501204002FFF7B7FD072004052046A5
:1023D000FFF792FD2046FFF7A3FD10BDF0B585B0D5
:1023E0006F49098BB44E552204923260704A904274
:1023F00000D8104602B2002A00DA4C4880B24843A6
:10240000C30BC81A85B22846C0301722D243B05039
:102410000024039434609CB201273E023346DF332C
:102420009C4217D90192049BA34A13604B08F904FC
:102430009C4202941BD208431B21C9439E4A174663
:102440007850039838608120FFF76AFC8320FFF7FB
:1024500067FC19E03046FFF763FC8120FFF760FC62
:102460008320FFF75DFC27463446934E12E0C033CD
:1024700019431B20C043904F395001983B5003989B
:1024800038608120FFF758FD34463E46029F2046C3
:10249000FFF752FD049830604B20C0433550432075
:1024A000C04335503B20C04335506720C0433158AE
:1024B000152212020A433250039830601C4D2878CE
:1024C0000A2818D009282AD1F809052827D3192065
:1024D0008101334804462183002000F0B1F8218BAC
:1024E000022000F0ADF8218B042000F0A9F80A20AA
:1024F000287005B0F0BD4134A74210D22D492848BC
:1025000004462183002000F09BF8218B022000F07C
:1025100097F8218B042000F093F80920287005B06B
:10252000F0BDC046900100207800804A0080FFFF87
:102530000405002010B53F20000201F021F800F052
:1025400043F800F039F801F0B1FE01F09FFE01F010
:1025500096FE01F075FEB420114C12492150BC20AA
:102560001149215053204001B8216050C020002162
:102570002150A172217061602165616521666166EB
:10258000A166E1660948C1632172A182E16120462A
:10259000203000F01BFB0648E0820648208310BD77
:1025A00090010020E02E0000DC1000002805002033
:1025B000CC0C00006A0A00000248016802220A43AB
:1025C000026070473400004D0448552101610168E4
:1025D0000222914301600021016170472800004DF3
:1025E000704700008A485521C1620121C90702686D
:1025F0000A4302600021C1627047C0460120C00743
:10260000A7490A6802430A607047C04610B50A4AE3
:10261000552353670323DB43084CD45080000F231A
:10262000834014689C431460814010680843106024
:102630000020506710BDC0460400804A010101001F
:102640002E4A5523936683009B1889B2596008303F
:102650000121814010680843106000209066704797
:10266000B0B5264A5523936683009B18DC69084D54
:102670002540DD61DC6989B22143D961083001213F
:10268000814010680843106000209066B0BDC046CD
:102690000000FFFFB0B5C84C55252560800000192B
:1026A000C90412040A4399B211431B22D243815038
:1026B00000202060B0BDC0467800804A544A5523AF
:1026C000D362002902D01168014301E011688143FF
:1026D00011600020D062704710B5084A55239366F8
:1026E000400010300323834014689C4314608140F1
:1026F0001068084310600020906610BD1000804AEA
:10270000154955220A670F2292050B6893430B6007
:102710000A6802430A60002008677047484955224A
:102720004A6100020A6882430A60002048617047DB
:10273000094955220A6700020A6882430A6000209C
:1027400008677047044955220A670A6802430A600D
:10275000002008677047C0460800804AB0B5204A8C
:102760005523936283070FD04723DB43D4580125B9
:102770002D042543D55013681A4C1C4014601A4B85
:102780000B4014681C43146003079B0F10D04723B1
:10279000DB43D45801256D042543D5501368134CF1
:1027A0001C4014608B02124C1C40136823431360BE
:1027B0008006800F10D04720C04313580124A40482
:1027C0001C43145010680B4B0340136008050A4962
:1027D000014010680843106000209062B0BDC04600
:1027E0005000804A00FCFFFFFF030000FF03F0FFE2
:1027F00000FC0F00FFFF0FC00000F03F044955220E
:10280000CA620A6802430A600020C8627047C04674
:102810004C00804A044955220A630A6802430A6050
:10282000002008637047C0464800804A044955228A
:102830004A610A6802430A60002048617047C04646
:102840006400804AF0B581B0154EB7681548046839
:10285000154805680320C143735801200202134242
:1028600005D030681043306001F01AFC0EE0725859
:102870003168024203D10020C043306006E00143CA
:1028800031600A48FFF7D8FC01F00AFCB8B2B0602A
:10289000A0B204490860A8B20349086001B0F0BDC5
:1028A0007000804A2C00804D3800004D0006080062
:1028B000F0B583B001200290400501F0FFF9092036
:1028C0004005FFF71DFF0025052728463946FFF77D
:1028D0009DFE022630463946FFF798FE0424204626
:1028E0003946FFF793FE324F28463946FFF7A8FED8
:1028F00030463946FFF7A4FE20463946FFF7A0FED2
:102900002C4F28463946FFF7ABFE30463946FFF7D5
:10291000A7FE20463946FFF7A3FE3F274021384651
:10292000FFF71CFF3846FFF703FF15200190FFF764
:1029300009FF28462946FFF7CFFE30462946FFF714
:10294000CBFE20462946FFF7C7FEFFF74BFE029E4F
:10295000B004FFF753FF3C0238462146FFF7AEFEB6
:102960001548552101603321C943144A425005607E
:10297000134806210160C1600161416181619822B3
:1029800081503846FFF746FF1323284629462A463A
:10299000FFF780FE304629462A46064BFFF77AFEAF
:1029A000204600F0EDFD019800F00CF803B0F0BDFA
:1029B0006A0A0000350500007800804A201453AAF6
:1029C0004400005004495522CA660A6802430A605E
:1029D0000020C8667047C0460C00804A70477047A8
:1029E000704770477047000070B501F053F901F06F
:1029F00033F901F037F901F03BF901F03FF901F04B
:102A000043F98022194907208850086000228A650E
:102A100003065324240625689D432560236823600C
:102A20008A64030225689D43256023682360902300
:102A3000CA5003041524A40625689D43256001237C
:102A40001D0426682E432660257A10262E43267202
:102A50000A62A521C9050A6882430A60086818430A
:102A60000860087A1843087270BDC04640000050E4
:102A7000800002494058000180B270478000804DBC
:102A80005522120650609160106808210842FBD060
:102A9000D068704755200006016802220A43026090
:102AA000704780B5042001F009F9FFF7F3FF80BDFE
:102AB00010B55522120613680224A3431360FFF7D2
:102AC000DFFF10BD80B53F20000200F059FD01205E
:102AD00040033A490A8802430A8003480178FE22EB
:102AE0000A40027080BDC046080080527047000056
:102AF00010B548212F48415C002948D0426D2E492D
:102B0000C968C36C99420EDD531C4365036D9A423C
:102B100013DD2A4A1388002B0FD1002444650424B6
:102B20002343138009E0012A02DB521E426504E0C0
:102B3000224A1388224C1C401480026E836D9942F5
:102B40000EDD531C0366C36D9A4213DD1B4A1388C6
:102B5000002B0FD10024046608242343138009E0CE
:102B6000012A02DB521E026604E0144A1388154C47
:102B70001C401480C26E436E994209DD511CC1662F
:102B8000816E8A4203DD0D490A88002A0BD010BDF0
:102B9000012A02DB511EC16610BD084801880A4A9D
:102BA0000A40028010BD0023C366102002430A8041
:102BB00010BDC046280500209000002054020020CF
:102BC000FBFF0000F7FF0000EFFF000010B52E2212
:102BD0000021815402220A230182818541618161A1
:102BE000C1610162416281620124A4030460426008
:102BF0008360C16010BD0000F0B581B00446007C68
:102C000005284DD88F4A552616608F48008B2168BD
:102C10004143C90B401A87B238466430114618390F
:102C200008600020009010601E20FFF721FF217C2B
:102C30008A00A3185D69854201DA14331860E568DB
:102C4000681CE06063689D424FDA052900D9F3E013
:102C500001A080588746C046712C0000552D000009
:102C6000812D0000AF2D0000DD2D0000092E000099
:102C7000744B1E6018464C3807601846443807608D
:102C800018463C38076015200002194668390A6862
:102C900002430A60009818603F200002E038CDE04F
:102CA0003F20000200F06CFC2046183062690025CD
:102CB000012104E0491C062932461D4608D040C8BF
:102CC000B2420B4600DB2B46B242F3DB1646F1E77D
:102CD000052B3BD80020C0467B441B795B009F44FA
:102CE00033022C2E303203202EE0A268D2189042FC
:102CF0001DDA544B1E6018464C38C24C218B0160C3
:102D000018464438016018463C380160152000021E
:102D1000194668390A6802430A60009818603F2023
:102D2000000200F02DFC0120207501B0F0BD0098DC
:102D3000E060481C207401B0F0BD012004E00420D4
:102D400002E0022000E005202C2160540120607484
:102D500001B0F0BD3B4B1E6018464C38076018466A
:102D60004438076018463C380760152000021946B1
:102D700068390A6802430A600098186034485DE0C8
:102D8000304B1E6018464C380760184644380760C0
:102D900018463C38076015200002194668390A6851
:102DA00002430A600098186028481E3046E0254B10
:102DB0001E6018464C3807601846443807601846AD
:102DC0003C38076015200002194668390A6802433A
:102DD0000A60009818601E48801D2FE0194B1E6085
:102DE00018464C38076018464438076018463C3887
:102DF000076015200002194668390A6802430A6014
:102E000000981860114819E00E4B1E6018464C38A7
:102E1000076018464438076018463C38076015209C
:102E20000002194668390A6802430A60009818606F
:102E30003F200002F83801E03F20000200F0A0FB34
:102E400001B0F0BD7800804A90010020023B0000F4
:102E5000022F0000F0B5114C0021114B1248134D08
:102E6000134F2780134A6560A2602163124D134EF1
:102E70000780134F476082600163CA43216161612B
:102E8000A361E161074F2762243464C40161416199
:102E90008361C1610762243064C0F0BD200100205D
:102EA00000F0FF07001000F858010020271800006C
:102EB0000C0C00003B020000FF7F00000180FFFFC0
:102EC00022200000F0B581B02F4801680024E143C2
:102ED000016001252846FFF7A9FC2846FFF71EFCE4
:102EE0000A26304600F016FC0221304600F01CFC99
:102EF000A805FEF701FF0C26304600F00BFC30461B
:102F0000294600F011FCF64337460C37384600F0EE
:102F100001FC0321384600F007FC0D27384600F07D
:102F2000F9FB3846214600F0FFFB2046FEF79AFCED
:102F30002046FEF747FE154F384601F0A1F8384607
:102F400001F07AF81427384600F0E4FB38462946A9
:102F500000F0EAFB1F25284600F0DCFB284621464E
:102F600000F0E2FB1725284600F0D4FB2846214656
:102F700000F0DAFB304600F0CDFB3046214600F091
:102F8000D3FB01B0F0BDC0467000804A000180460E
:102F900080B500F0A3FE00280BD000F021FE3F20FA
:102FA000000200F0EDFA01200003A6490A8802435E
:102FB0000A8080BD80B5022000F048FE80BD000080
:102FC0004021C048415C002915D0BF490978072934
:102FD00011D10C490A7D012A0DD100220A75302237
:102FE0008A5C92008918496B406C814203DA9548EB
:102FF0000188002900D0704701229202114301800C
:103000007047C046900100202221AE48415C012952
:1030100032D1AD4909780839C268184BC9B29A4211
:1030200012DC022923D8C16B4A1CC263426B914255
:1030300022DB84490A88002A1ED10023C3630120B1
:10304000000202430A807047022913D8C16B4A1C50
:10305000C263826B91420FDB7A490A88002A0BD146
:103060000023C3630120000202430A80704700214D
:10307000C16370470021C1637047C046FF3F000035
:10308000F0B51448154A164B164C174D174E184FED
:1030900018490260104A42608360C460056146615D
:1030A0008761C1611449154A154B164C164D174ED0
:1030B000174F016242628362C4620563466387639D
:1030C0001449C1631449154A154B01644264836471
:1030D000F0BDC046B8040020000048430000DC43B7
:1030E00000504347A7749C3BABF0E6427B5D863EB5
:1030F000E79FA345E79F2346D2A8343CCF38D23779
:103100005FAEC9406543C83853C59D3AC46C443D61
:1031100042E3E73E55401A3FD7B3DD3EF3665F3FDB
:10312000AAA4423C80B500F093FE01F0C3F9FFF77A
:103130005BFC00F032FF00F05FFF00F015FBFFF7D3
:1031400033F8FFF7B5FB00F0BBFBFFF7AAFCFFF776
:1031500097FF00F0CBFD00F0ABFA00F0B7F8E048C5
:1031600000F022FDFFF72CF900F0D2FEFFF722FF5E
:1031700080BDC04680B55248C168491CC1603F202F
:103180000002012903D82A3000F0FAF904E000F027
:10319000F7F94D4807210170F3484068002800D036
:1031A00080BD49480E21017080BDC04680B501F048
:1031B00013F901F019F8FFF79BFCFFF725FF80BD1D
:1031C000B0B53F200402204600F0DAF91B48017830
:1031D000FE220A4002701A480178EF220A4002706B
:1031E0009420E1490B5AC04A15882B430B522346C1
:1031F000FF331D4221D14B68002B1ED100250D52FB
:103200001580A0B200F0BCF9E348552101601B21F4
:10321000C94345501721C943455005600124A00505
:10322000FEF76AFD2002FEF77BFD8120FEF778FDA8
:103230008320FEF775FD24480570B0BD080080525C
:10324000080000545402002080B5C7484068012897
:1032500002D11D480121017001F011F801F026F89A
:1032600080BDC04610B5FFF765F900F03FF913487F
:103270000178BC4A002050608909012422468A4313
:10328000B9490A70FFF7AAF83F20000200F078F968
:103290002046FFF7CBFA2046FFF740FAA005FEF7DD
:1032A0002BFD2002FEF73CFD8120FEF739FD832037
:1032B000FEF736FDE2480221017010BD0C000053FC
:1032C000EC0000202805002004050020F0B585B0A2
:1032D00094200390F24F00243C52222001213954C3
:1032E00004916348C470847044700470614D0E2072
:1032F000624A0923624E0DC55F4828606E606148CE
:10330000A8606148614B624A2B626862AA628803C6
:1033100068617D200290C0007C60B8605D48067ED8
:103320005D4831460C3DFDF7E3FEFEF717F9F7491E
:1033300089680191FDF741FF8721C905FDF700FF6D
:10334000FEF73AF968623046FEF728F9534B2246F9
:10335000FEF724F8524B2246FEF788F8514B2246DE
:10336000FEF784F8FEF756F9A86240200499395414
:103370004820395470203C547825795580204A499A
:10338000395286200F213952E048016800914748A0
:10339000FDF713FFFEF729F972217852444878822D
:1033A000444845493C84454ABA62FD621926B20444
:1033B0003B46143307C30298000178634048019DDF
:1033C0002946FDF7FAFEFEF7F7F878627C70F00107
:1033D00002904C30F860049838740A20B863394A77
:1033E000360164233949FA643E657C65364ABA651C
:1033F000FB653C667966B866FC664B20C000786762
:1034000033482946FDF7D9FEFEF7EFF8F867472065
:1034100000060099FDF7D1FEFEF7CEF878648A2009
:10342000049939548C212B48785090203C529E4866
:103430004650A82150224250A421244B43500399C6
:10344000435098214250AC214650B021029A42503C
:10345000882143502049214AC16002612049214A04
:103460000A624A6220490C80447205B0F0BDC04631
:1034700024050020B400002091500000023A000012
:10348000AB260000E84E000072060000CC8C000065
:1034900005ED000008050020407E05000000D04139
:1034A0000070C74000003E40307500000000964AA2
:1034B000606D000008521027E02E6400C05D00001F
:1034C0000000FA4A60EA0000701101008038010033
:1034D00000409C4E4098E8030500140005002300BE
:1034E00044040020FFFF000054020020B0B51C4C33
:1034F0000025A566E566256754212046FDF715FEE3
:103500003221184845540586C562856245620560CA
:1035100045608560C5600561456185618221604ABD
:1035200055528421555288215552D5631563056241
:103530005C2025545E200D492152602025527920BF
:10354000800025503D20C000255009480B4960658A
:10355000A1656566FFF77EFC00F0A2F9B0BDC0462C
:1035600058020020EC000020280500209979000076
:10357000FF3FFF3F014908407047C046FF3F000042
:1035800080B5FFF7F7FF2C4955220A602322D2436A
:1035900088500020086080BD7800804AF0B581B076
:1035A000244C2068411C21600126F143884205DC3F
:1035B0003F200002FFF7E4FF01B0F0BD1E4D1F49A0
:1035C000884218DC552028604B20C0431D492950F3
:1035D0004320C04329503B20C04329506720C143AA
:1035E0006A581520000202436A5000212960FFF743
:1035F000C7FF01B0F0BD3F200002FFF7C1FF55201B
:1036000028601B20C04300272F501720C0432F5095
:103610002F60B005FEF770FB3002FEF781FB8120C2
:10362000FEF77EFB8320FEF77BFB2760D448077004
:1036300001B0F0BD880000207800804A9E0F000095
:10364000040500206A0A000080B5134801884A1C5E
:103650000280972916D3002101801048FEF7BEFE94
:103660000F480078062141430E4A51180E4A5378FC
:10367000C95C51700C2242430C4880184900405AE2
:10368000FFF77EFF06484068002800D080BDBC4898
:103690000E21017080BDC0468C000020CC0C0000C3
:1036A0002805002020000020900100202C00002090
:1036B00070B5F54D0F20287002202876134E706BE0
:1036C00047210C062146FDF73BFDFDF775FF6860BD
:1036D000B06B2146FDF734FDFDF76EFFA860F06B7F
:1036E0002146FDF72DFDFDF767FFE860306C2146B0
:1036F000FDF726FDFDF760FF2861B06C2146FDF760
:103700001FFDFDF759FF686170BDC046B804002079
:10371000704700001F2101400120884001490860D6
:103720007047C04600E100E0002805DB03220346A5
:1037300093430B4A9A1806E00F220240083A0323EB
:103740009A43084BD218C000182303408801C0B226
:103750009840FF21994013688B43034313607047DF
:1037600000E400E01CED00E070B50126700600F0FA
:10377000A5FA9920C40500252046294600F036F810
:103780002046294600F02AF82046294600F016F87F
:103790001021204600F01AF8204600F04AF80146B1
:1037A000204600F03BF8204600F070F802488660A2
:1037B0004660066070BDC0468C00005002688C23D5
:1037C0009A43026002680A430260704702689023CD
:1037D0009A43026002680A430260704702688323CA
:1037E0009A43026002680A4302607047026820231D
:1037F0009A43026002680A430260704701684022EF
:10380000914301607047426840239A434260426896
:103810000A434260016819430160704742681F23F0
:103820009A434260194042680A434260AA2181607B
:10383000704770B504464021FFF7E5FFAA20A0605D
:1038400060681F2188436060204600F01FF8204612
:1038500000F017F805460026606830436060204697
:1038600000F00FF8854204D1761C1020202EF3D3EF
:1038700070BD2046FFF7C2FF204600F00CF830462E
:1038800070BD4068C109012008407047016880226E
:103890000A430260704701688022914301607047CB
:1038A0002420064900220A540A834A61CA610A6236
:1038B0000A604A608A60CA607047C046900400206F
:1038C00070B50124A00600F0F9F900252846294624
:1038D000FEF734F80221072628463246FDF7FEFFA0
:1038E0002846FEF785F801462846FEF721F92846C6
:1038F0002946FDF7C1FF2846FEF738F9284631462C
:10390000FEF746F9284621462246FDF7CDFF284618
:10391000FEF7B2F970BD80B5FEF770FE3F20FFF7ED
:1039200051F880BD704700009D480278002A0CD0F5
:10393000144801780F2A1BD1FE2211400170134850
:103940000178EF220A40027070470F480188491C35
:10395000018088B20E49884210D30A480178FE22BD
:103960000A40027009480178EF220A40027070474D
:103970000122114301700448002101807047C046B4
:103980000405002008008052AC000020080000540C
:10399000214E0000B0B500F072FC7E4C206E6066D7
:1039A00000F058FC2066216DA26D801A20656165CB
:1039B00000F056FC00F05CFC32480178491C0170B4
:1039C0002246503263789B00D218136A256E5B1929
:1039D0005B081362C9B2062916D30021017080204A
:1039E0002058254670352ECD5118C9184919081888
:1039F0008421615840182449097E41432348FFF738
:103A000057F83C214143E161206E616E4018424904
:103A10004143080C9C21605061490B7821460E31CE
:103A200022460C32092B07D00D2B05D00A2B0BD1C7
:103A3000214612312246103212884243A023E2501E
:103A40000988414390202150A8202158A0202258C5
:103A50008A4203D3A42161588A4200D92150982177
:103A6000625890216358934203D39422A258934200
:103A700000D96250205800F01FFC01206075002022
:103A80002072B0BDAE0000200805002000093D00F6
:103A9000B0B500F0F4FBEC4C206E606600F0DAFB91
:103AA0002066216DA26D801A2065616500F0D8FB4B
:103AB0002546503500F0DCFB607880002818016A4C
:103AC000226E636E891849080162981812494143B1
:103AD0000A0CA1895143EA642965E08950432864AE
:103AE000AA6D914203D3A422A258914201D9A021E8
:103AF000625098216158884203D3942161588842CA
:103B000001D990202150AC20205800F0D5FBC020D6
:103B1000002121542172B0BD2202000010B500F036
:103B2000C5FBC94C207A02282BD000282BD10120BC
:103B30002072A06EE066A06DE06500F08BFBA065D2
:103B4000C0490022CA63226D1018A0666068401C3C
:103B500060600878062141430F4A51186278895CF9
:103B600061700C2242430D4880184900405AFFF70B
:103B700007FD02202072B5480078082804D1B02043
:103B800003E00320207210BD9020205800F094FB29
:103B900010BDC04690010020200000202C00002015
:103BA0000405002070477047F0B581B000900024F4
:103BB00027462646254601200002082100F0D0F8BD
:103BC0000099886036186541FF2000027F1C38404C
:103BD000000AF0D0300A0099888601B0F0BD0000DC
:103BE0000248016810220A43026070470C0100502D
:103BF00070B50C460546074E00F068F8002801D164
:103C0000761CF9D11048054303480562046000F0B2
:103C10008DF970BDEFD8FFFF0400005080B5024958
:103C2000086000F083F980BD0800005020490A6850
:103C3000044B1A40DB1C034013430348184308603D
:103C40007047C046FCFF00000000695A0149086047
:103C50007047C0463C000050014899210160704700
:103C6000C00100500148992101607047C401005013
:103C70000148992101607047C8010050014899210D
:103C800001607047CC0100500148992101607047E4
:103C9000D00100500148992101607047FC0100509B
:103CA00003480168034A0A40034911430160704711
:103CB00020000050F7FF00000800695A02490A6816
:103CC00002430A607047C0460C0000500248016879
:103CD000012008407047C046280000500248006894
:103CE000010901200840704708010050F0B581B07B
:103CF000134C0A20206013481349A3220C23134DB0
:103D0000134E144FE7620127BF03A760E26022460B
:103D100010320BC220461C3068C00F4D686C472122
:103D20000906FDF70DFAFDF747FC6060E9690B48ED
:103D3000FDF743FAFDF740FCA06201B0F0BDC046BC
:103D400058000020589EFFFFA8610000DC001E0004
:103D5000255500006A0A0000B8040020C141134B39
:103D6000F0B581B00C460D4D5521E9610021296067
:103D70002A6802432A60E9610B20C643A8598027BC
:103D8000384208D1FEF7BAF9A8593842FCD120468A
:103D9000FEF7AEF9010188B201B0F0BD1000804D10
:103DA000B0B57821E648415C00293FD0E349097865
:103DB0000939C9B2012939D823494A7D012A35D1A7
:103DC0008C228B580A6E9A421BD34B6E5C00A24227
:103DD00017D85B089A4214D38A6ECB6E5C00A2425D
:103DE0000FD85B089A420CD30A6D4B6D5C00A2425F
:103DF00007D85B089A4204D38A6DCB6D5C00A2425F
:103E000015D98822835A5B1C83528622835A8822C2
:103E1000845A9C4208D9CB4B1C88002C04D1002525
:103E20008552802004431C8000204875B0BD5B088B
:103E30009A42EAD38822825A002AE6D0521E882368
:103E4000C252E2E72805002090010020040500206E
:103E500010B500242046FFF7E9FEFFF721FF2046BA
:103E60002146FFF7C5FE2046FFF7D8FE7D20400221
:103E700000F002F810BD0000B0B5401E010E09D1DF
:103E8000214C60600025E8430321FFF74DFCA5604D
:103E900007202060B0BDC046F0B581B01648076865
:103EA0001648046816480668164D681C16490A68C4
:103EB00002430A6000F048F914480278511C01706E
:103EC0008178491C8170002A03D1012242700022AE
:103ED0000270C9B20A2903D10121C1700021817089
:103EE0002F40054807602C40044804602E400448D9
:103EF000066001B0F0BDC0467800804A2C00804DBD
:103F00003800004DFFFF000010E000E02405002015
:103F100080B5204800680449FDF7EAF87D21C90012
:103F20004843FFF7A9FF80BD40420F0070B5032052
:103F3000C143144D695801408900134A54582968F7
:103F4000014201D02868114C1F20C043285841006D
:103F5000FF20460031400029204602D02046FDF7D0
:103F6000C7F80B4908601B20C04328584100314066
:103F7000002903D02046FDF7BBF80446054804603D
:103F800070BDC0462400005004000020409C00008A
:103F90001C000020180000207047B0B50220FFF779
:103FA0008DFE8D20C405002504222046294600F000
:103FB00047F8402120462A4600F04EF8204600F0FF
:103FC00055F84B208101204600F063F8204600F0B0
:103FD00052F8204600F05FF8B0BD000010B5BA4CB2
:103FE000204600F052F8002804D0204600F024F8C3
:103FF000FFF794FD10BDC046B0B50220FFF75EFE8E
:10400000B14C002504222046294600F019F8402131
:1040100020462A4600F020F8204600F027F84B20E2
:104020008101204600F035F8204600F024F82046B3
:1040300000F031F8B0BDC046012141617047000079
:10404000044B196001680C23994301600168114316
:10405000016070472C00005010B503684224A34350
:104060000360114302680A43026010BD0168012227
:1040700091430160704701682022914301607047BD
:10408000016820220A43026070470169012008404C
:10409000704741607047016880229143016070471A
:1040A00010B51420FEF7E4FCBE4CE0821520FEF7AC
:1040B000DFFC20831620FEF7DBFC6083C04C2078F9
:1040C0000F2828D87844007940008744070A0D104B
:1040D0002424241316191C2424241F22FFF7B4F8C7
:1040E00019E0FFF7BFF816E0FFF744F813E0FFF719
:1040F000ABFA10E000F084FA0DE000F077FB0AE084
:1041000000F048FB07E000F05BFB04E0FFF746FA35
:1041100001E0FFF755F8FFF743FE2078002805D0AF
:10412000DA484068002801D10E202070D948008864
:10413000002801D00F20207010BDC04604050020CB
:104140002805002054020020F0B581B00820FEF7B9
:104150008FFC944CA060616C401A7D221201424396
:10416000D01340186064A18E401A0021002800DCA2
:104170000846964DE96841430813C54EF0600A2091
:10418000FEF776FC2085618D401A154F7843C00BF1
:10419000401860851320FEF76BFCA082216C401A4A
:1041A0007843C0134018206406CD4143C9133160E1
:1041B0004243D013B0600920083DFEF759FC20624D
:1041C000616A401A074A4243D01340186062296B63
:1041D0004143C813B061FEF7E9FF01B0F0BDC0462E
:1041E000881300007017000010B58A21A748415CB1
:1041F000002921D09021425A8C23C35A694C648DE6
:104200009C420ED2521C42528E23C35A92B29A4200
:1042100012D900224252D748018840220A43028024
:1042200010BD002A03D0511E9022815210BDD148EA
:104230000188024A0A40028010BDC046BFFF00004C
:104240008D20C00501682022914301600121416158
:104250007047000001480068C0437047080080466E
:104260000020C043014908607047C04604008046F2
:104270008D20C005016880220A43026070478D20AE
:10428000C005016880229143016070470E480168B3
:104290002022914301600121416170470A480121B8
:1042A0004161016820220A430260704706480168A4
:1042B0007F220A40026070470349486008688022F4
:1042C00002430A607047C04600018046704770474D
:1042D00070B53448406A344E311A3448018034494C
:1042E00009780422114207D168490022CA604A6055
:1042F00002803048027070BD2E490A780B2A06D31E
:1043000000882D49884205D36049012208E0501CED
:10431000087070BD2949884203D85C490022CA60F0
:104320004A60274909780C292DD801228A40172193
:1043300009020A4227D0FDF731F9224A224BFCF745
:104340007BFF04460D4621484069FDF713F90246FC
:104350000B4620462946FDF721F8FDF77FF9C20BF1
:1043600032401B4814184949CB68A34203DA194864
:104370001818C86009E0174C14191818A34200DC7B
:104380001046C86001E04148C0680C49884202DA22
:104390003E48C16070BD0121C9038842ABDD3B4886
:1043A000C16070BD44040020FFFF0000B000002089
:1043B0000C000053B20000209A190000CC0C000041
:1043C000040500209A9999999999B9C0B4000020E0
:1043D0001FFDFFFFE102000010B5EB48017C002942
:1043E00053D02B498968428A914210DD828B521C3E
:1043F0008283438B92B29A421FD9002282835D4A04
:104400001388002B19D101242343138015E0828BDC
:10441000838A99420DDA521C8283438B92B29A426C
:104420000BD900228283534A13881B4C1C401480F2
:1044300003E0002A01D0521E8283C28A914210DA20
:10444000018C491C0184C28B89B291421DD9002183
:10445000018448480188002917D1022211430180B4
:1044600010BD028C038B99420BDD511C0184C08B63
:1044700089B2814209D93F480188084A0A4002802E
:1044800010BD002A01D0511E018410BD2805002056
:104490009000002054020020FEFF0000FDFF0000FD
:1044A0004548464901600849084A0A600021016000
:1044B0007047C0464048414901600349034A0A60C9
:1044C000002101607047C04614008047AA55AA55D4
:1044D00010B53949394A0A608F22D20513680C2475
:1044E000A34313601368034313600020086010BDEA
:1044F0003149324A0A60024A106000200860704761
:10450000040080472C482D490160FF2109028F22B9
:10451000D20513688B4313602D21490213680B43A6
:1045200013600021016070472348244901608F21F6
:10453000C9050A68012313430B600021016070471D
:1045400002480168012008407047C04610008047BB
:1045500080B5FFF7F5FF00280BD0FFF7A1FF3F2044
:104560000002FFF70DF80120C00202490A88024349
:104570000A8080BD54020020B0B501252846FFF70F
:104580009DFB00242046FFF7A3FF7D204001FFF79D
:10459000AFFFFFF78FFFFFF783FFFFF7C5FFFFF7C1
:1045A000B1FF05480549016029048F22D20513682F
:1045B0008B4313600460B0BD000580479966AA551F
:1045C0007047000010B572B6FEF7ACFDFFF7D4FFE0
:1045D000FEF778FC62B6094C01E00020E070FFF7BE
:1045E00069FF6078012805D100206070FFF770FE38
:1045F000FFF79AF9E0780128F1D1EEE724050020D1
:10460000F0B581B04D20904C215C002962D04E2144
:10461000625C521C6254D1B20A2959D33121615CC7
:10462000002900D1A1E0002727544E202754534EE3
:1046300038463146FEF704F8022528463146FDF794
:10464000FFFF042630464D49FDF7FAFF384639464C
:10465000FEF742F8012000903946FEF73DF8284663
:104660003946FEF739F803203946FEF735F830466B
:104670003946FEF731F805203946FEF72DF8009847
:104680008007FDF743FB3E48FDF740FC3B48208395
:104690003C48E0824C21615C6170FDF79FFE6B48F5
:1046A00000780C2141433948401861784900405A4C
:1046B000FEF766FF2572B0202058FFF7FDFDFFF7DB
:1046C000EDFDFFF7CDFDFFF7D3FD63480821017035
:1046D00001B0F0BD19200502258300263046294689
:1046E000FDF7AEFF022738462946FDF7A9FF042053
:1046F00000902946FDF7A4FF254855218166218BAE
:10470000C1614162C1621521090202680A43026067
:104710008666012530462946FDF7DEFF28462946F4
:10472000FDF7DAFF38462946FDF7D6FF0320294674
:10473000FDF7D2FF00982946FDF7CEFF0520294658
:10474000FDF7CAFF8120FDF7EBFA8320FDF7E8FAB9
:104750002802FDF7E5FA0A48FDF7D8FAA807FDF7A1
:10476000D5FB4D20255401B0F0BD20342046FEF786
:1047700043FAFEF725FC01B0F0BDC0466A0A00000E
:1047800000017000CC0C0000280500202C00002047
:104790001000804A10B52C48C18A2C4AD3681C46A8
:1047A000493449228C4204DA0022D2435B1E8B42F8
:1047B00001DC5118C182C08AFDF710FE10BDC04651
:1047C00010B52148C18A214AD3681C464934492280
:1047D0008C4204DA0022D2435B1E8B4201DC51186A
:1047E000C182C08AFDF7FAFD10BDC046B0B5164CB7
:1047F000E08A164DEA68134649334921834204DAB8
:104800000021C943521E824201DC0818E082E08A7E
:10481000FDF7E4FD28780E49FDF71CFDC020205C63
:10482000012801D1FFF734F9606807280AD3002076
:104830006060084908860848092101700120800548
:10484000FDF74EFBB0BDC0469001002028050020BA
:1048500044040020EC000020040500202021020C6C
:1048600001D010211046020A01D010460839020971
:1048700001D01046091F820801D01046891E420847
:1048800001D0881E7047081A704702E008C8121F3E
:1048900008C1002AFAD170477047002001E001C129
:1048A000121F002AFBD17047C848000000000020FA
:1048B000480000008A48000010490000480000201D
:1048C000780D00009A4800001D0000000090D00301
:1048D0000000000000000000006CDC021F0000006F
:1048E000006CDC02006CDC02010203040500050020
:1048F00001020304023B022F082F083E203E203B0A
:10490000082F083E203E203B023B022F0000000003
:04000005000010C126
:00000001FF
