:020000040000FA
:1000000048080020D9000000550800003D08000005
:1000100000000000000000000000000000000000E0
:100020000000000000000000000000003509000092
:10003000000000000000000031090000D3090000AA
:1000400035080000ED000000370800003908000006
:100050003B080000EB000000D50300004B0100004E
:10006000EB000000690C0000B9060000EB00000086
:100070007902000049010000EB000000E10A0000E5
:10008000E50A0000EB000000EB000000DD0A0000C4
:10009000DF0A0000EB000000EB000000670C00002E
:1000A00053080000EB00000033090000EB000000E3
:1000B000EB000000EB000000EB000000370900003F
:1000C0000448854600F02EF8004800470D0D00005A
:1000D000C046C046480800200548804705480047FC
:1000E000FEE7FEE7FEE7FEE7FEE7FEE7FEE70000CD
:1000F000890A0000C100000030B50B46014600200F
:100100002022012409E00D46D5409D4205D31D461D
:100110009540491B2546954040191546521E002D15
:10012000F1DC30BD064C0125064E05E0E36807CC46
:100130002B430C3C98471034B442F7D3FFF7C4FF6D
:10014000240D0000440D00007047704755219B228C
:10015000D205D1621146896A0122824011439B2255
:10016000D20591620021D1627047000010B555237D
:100170009B24E405E36223461B68094C23409B242F
:10018000E405236023461C6803460B4313431C43CA
:100190009B23DB051C6000239B24E405E36210BD68
:1001A000C7CFFFFF55209B21C905C862084640689C
:1001B000022188439B21C90548600020C86270471E
:1001C00055219B22D205D1621146C9690143D161F3
:1001D0000021D162704755219B22D205D162114680
:1001E000496B014351630021D162704755219B2225
:1001F000D205D162C11FF939002915D0FF39013963
:10020000002912D0FF225202891A04D001221204BE
:10021000891A12D100E000BF9B21C90589680143FA
:100220009B22D205916009E000BF9B21C905896826
:1002300001439B22D205916000E000BF00BF002176
:100240009B22D205D162704755219B22D205D162F3
:1002500011460969014311610021D16270470146CD
:100260009B20C005406A01228A401040002801D02E
:10027000012070470020FCE710B51E20FFF7EFFFBC
:10028000002805D003A000F0F1FC1E20FFF75EFF60
:1002900010BD00006F6B000055219B22D205D1627A
:1002A000114609680722120491439B22D20511606E
:1002B00011460968014311600021D1627047552041
:1002C0009B21C905C86208460068102108439B218C
:1002D000C90508600020C862704755209B21C905E8
:1002E000C86208464068012108439B21C90548604F
:1002F0000020C86200BF9B20C0054068C007C00F37
:100300000028F8D17047000010B50120C00600F0A9
:1003100051FB0322120303210820FFF727FF0F4898
:10032000FFF792FF00BF01200D49C86200BF032004
:100330004004FFF7B1FFFF200130FFF757FF012016
:100340008007FFF748FF01208007FFF739FFFFF71D
:10035000B6FFFFF7C2FFFFF725FF10BD0001004009
:10036000400000500449C968024608320123934006
:100370001943014AD1607047400080420449C9686E
:10038000021D012393401943014AD16070470000C8
:10039000400080420146064880680A460832012330
:1003A00093401840002801D0012070470020FCE74E
:1003B000400080420146064880680A1D01239340A0
:1003C0001840002801D0012070470020FCE7000001
:1003D0004000804210B50120FFF7ECFF002802D05A
:1003E0000120FFF7CBFF0020FFF7D4FF002809D141
:1003F0000120FFF7CFFF002804D10220FFF7CAFF3A
:10040000002808D00020FFF7ADFF0120FFF7AAFF6A
:100410000220FFF7A7FF10BD552005498863084655
:10042000C06840004008C860002088637047000032
:100430004000804A0449096B024608320123934078
:100440001943014A116370474000804A10B5552294
:100450000D4B9A630D4A9523DB051A601A465268C4
:1004600084000F23A3409A439523DB055A601A4664
:10047000526884000B46A3401A439523DB055A605B
:100480000022014B9A6310BD4000804A0101010027
:1004900010B555220A4B9A638BB2094A2C3A840054
:1004A00013519522D20512690346083301249C405A
:1004B00022439523DB051A610022014B9A6310BD8C
:1004C0004000804A10B55522114B9A63104A143AE5
:1004D0008300D258130C1B040D4A143A84001351A4
:1004E0008300D2588BB21A43094B143B84001A5133
:1004F0009522D20512690346083301249C40224309
:100500009523DB051A610022014B9A6310BD0000A0
:100510004000804A70B55524074DAC63CC041504E7
:100520002C439DB22C43044D1C358600AC51002455
:10053000014DAC6370BD00004000804A10B55522EB
:100540000D4B9A639522D2051269430010330324A0
:100550009C40A2439523DB051A611A4612694300A9
:1005600010330C469C4022439523DB051A61002280
:10057000014B9A6310BD00004000804A5521094A92
:1005800091639521C90589680F22920591439522AF
:10059000D205916011468968014391600021014AAA
:1005A000916370474000804A55211C4A9163C107FE
:1005B000C90F002903D102210140002908D095214B
:1005C000C90589680122120491439522D2059160E0
:1005D00004210140002903D108210140002908D04D
:1005E0009521C90589680122520491439522D205BB
:1005F000916010210140002903D1202101400029F0
:1006000008D09521C9058968012292049143952259
:10061000D20591600021014A916370474000804AF1
:100620005521064A91639521C905896801439522A0
:10063000D20591600021014A916370474000804AD1
:100640005521044A91631146896801439160002154
:10065000916370474000804A5521054A91631146D5
:10066000496A02021143024A5162002191637047B4
:100670004000804A5521074A91639521C905896840
:10068000020211439522D20591600021014A916333
:10069000704700004000804A01460648C06A0A468A
:1006A0000832012393401840002801D001207047F0
:1006B0000020FCE74000804A10B50020FFF7ECFF67
:1006C000002802D00020FFF7B5FE10BD10B50120B4
:1006D0004005FFF753FF0120400500F06BF90521AD
:1006E0000020FFF7B3FE05210220FFF7AFFE052132
:1006F0000420FFF7ABFE05210120FFF7A7FE05212F
:100700000320FFF7A3FE05210846FFF79FFE4B21BC
:1007100089010020FFF7BCFE4B2189010220FFF771
:10072000B7FE4B2189010420FFF7B2FE4B2189015E
:100730000120FFF7ADFE4B2189010320FFF7A8FE42
:100740004B2189010520FFF7A3FE00210846FFF792
:10075000B9FE00210220FFF7B5FE00210420FFF7BB
:10076000B1FE00210120FFF7ADFE00210320FFF7BD
:10077000A9FE00210520FFF7A5FE3F20FFF714FF8B
:100780003820FFF777FF3F20FFF74AFF0021084698
:10079000FFF7D4FE00210220FFF7D0FE0021042045
:1007A000FFF7CCFE00210120FFF7C8FE0021032047
:1007B000FFF7C4FE00210520FFF7C0FEFFF72CFE67
:1007C0000120FFF749FF7D23DB0000221146104680
:1007D000FFF7A0FE00BF06200D49486000BF00BF24
:1007E000086100BF00BF486100BF00BF886100BF53
:1007F00000BFC86100BF00BF05498031C86100BFAC
:100800003F20FFF71DFF3F2000F004F810BD00005F
:10081000400000505521064A91639521C905C968D9
:1008200001439522D205D1600021014A91637047AE
:100830004000804A7047704770477047704710B556
:10084000FFF762FDFFF742FF00F0D8F900F00EF865
:1008500010BD704770470000C206D20E01219140C2
:10086000014A11607047000000E100E010B500216E
:10087000062000F021F80620FFF7EEFF03211020EC
:1008800000F01AF81020FFF7E7FF0C20FFF7E4FF55
:1008900000210C2000F010F80A20FFF7DDFF0321F3
:1008A0000A2000F009F81420FFF7D6FF03211420D6
:1008B00000F002F810BD000010B5002819DA1A4A3D
:1008C00003071B0F083B9B089B00D2588307DC0ED5
:1008D000FF23A3409A434B071B0E8407E40EA3405B
:1008E0001A43114B0407240F083CA408A4001A5112
:1008F00018E00E4A03231B02D21883089B00D2582B
:100900008307DC0EFF23A3409A434B071B0E84078B
:10091000E40EA3401A43054B032424021B19840848
:10092000A4001A5110BD00001CED00E000E100E041
:10093000704770477047704710B50246094B00BFBB
:1009400000F040F8002800D003E018465B1E0028A5
:10095000F6D100BF044810430524240760622046F6
:10096000416010BD102700000000695A05210907E9
:1009700088607047014605221207106A80088000CF
:1009800002460A43104682B2024B1A4305231B0754
:100990001A6270470000695A05210907086A082190
:1009A000084381B2024A11430522120711627047BF
:1009B0000000695A05210907C96801430522120789
:1009C000D160704705200007806AC007C00F7047DC
:1009D0007047704710B505200007406A002804D012
:1009E000012811D0022814D10FE005200007006A69
:1009F0008007800F032803D11C481D49086002E0CE
:100A00001C481B49086004E003E01B4818490860C3
:100A100000BF00BF052000074068002809D005205E
:100A200000074068410012480068FFF765FB104965
:100A3000086005200007806800280AD0052000070C
:100A4000806841000D480068FFF756FB0B490860BD
:100A500003E007480068094908600949044800683C
:100A6000FFF74AFB0749086010BD0000006CDC027C
:100A70001C0000200090D003409C000020000020BB
:100A800040420F002400002010B5FFF7A3FF10BD67
:100A900010B500BF99201049C86300BF00BF0860AF
:100AA00000BF00BF486000BF00BF886000BF00BF3C
:100AB000C86000BF00BF086100BF0320FFF75AFFF6
:100AC000FFF76AFF00210846FFF736FF0020FFF717
:100AD0004DFFFFF77FFF10BDC0010050704770470A
:100AE0007047000010B54520000600690007000FA0
:100AF0002049086008460068400808604520000654
:100B0000006A1D4908601B480068030000F0B8F83F
:100B10000705060A0B2F2F142F0028E00120174984
:100B2000086024E023E01448006813480068124875
:100B30000068114800681AE00020114908600BE0C5
:100B40004520000600F08CF8C1B20D480468601C16
:100B50000B4A10600B48015545200006006AC0078B
:100B6000C00F0028ECD101200749086000BF00BF7A
:100B700010BD000010000020140000200C00002018
:100B8000180000202800002008000020FFB581B0D8
:100B9000044615461E460A9FA06980098001A0618F
:100BA000A1692846304338430143A16104490968DB
:100BB00008090299FFF7A0FAA06005B0F0BD000097
:100BC00020000020C16A10221143C162704770B535
:100BD000049C95010E0135439E0035436600354364
:100BE0006D1C456170BDC16801221143C160704731
:100BF000C16802221143C1607047000008B510208F
:100C0000FFF7D8FE0020034603224B21C9010090C4
:100C100045200006FFF7BAFF45200006FFF7D2FF88
:100C20000120034600221146009045200006FFF7F0
:100C3000CEFF00BF09200949C86000BF00BF0820DF
:100C400006498039C86300BF45200006FFF7D0FF82
:100C500045200006FFF7C7FF08BD0000C000005098
:100C600001460868704770477047000010B5024A97
:100C7000024900F022F810BDD90C0000000000204D
:100C800030B47446641E2578641CAB4204D3635DA3
:100C90005B00E31830BC18471D46F8E702E008C8BF
:100CA000121F08C1002AFAD170477047002001E0E6
:100CB00001C1121F002AFBD17047F8B516460F4636
:100CC0000446002503E03946B047641C6D1C2078BB
:100CD0000028F8D12846F8BD00BF45221206126A46
:100CE00020231A40002AF8D04522120650600A2814
:100CF0000BD100BF45221206126A20231A40002A97
:100D0000F8D00D2245231B065A607047FFF7C0FE3E
:100D1000FFF75EFEFFF793FD64210020FFF7D2FB93
:100D200000BFFEE7440D0000000000202800000086
:100D30009C0C00006C0D0000280000202008000022
:100D4000AC0C0000000000000000000000000000EB
:100D50000000000000000000000000000000000093
:0C0D60000090D0030090D0034000000081
:04000005000000C136
:00000001FF
