:020000040000FA
:1000000070080020D9000000E9070000AD060000DC
:1000100000000000000000000000000000000000E0
:10002000000000000000000000000000690800005F
:10003000000000000000000065080000330B000015
:10004000A5060000ED000000A7060000A9060000BC
:10005000AB060000EB000000310300004B01000084
:10006000EB000000D10D000015060000EB000000C1
:100070008501000049010000EB000000490C000070
:100080004D0C0000EB000000EB0000003D0C0000F8
:100090003F0C0000EB000000EB000000CF0D000063
:1000A000BB060000EB00000067080000EB0000004A
:1000B000EB000000EB000000EB000000950A0000E0
:1000C0000448854600F02EF800480047EF0F000076
:1000D000C046C046700800200548804705480047D4
:1000E000FEE7FEE7FEE7FEE7FEE7FEE7FEE70000CD
:1000F000E90B0000C100000030B50B4601460020AE
:100100002022012409E00D46D5409D4205D31D461D
:100110009540491B2546954040191546521E002D15
:10012000F1DC30BD064C0125064E05E0E36807CC46
:100130002B430C3C98471034B442F7D3FFF7C4FF6D
:1001400000120000201200007047704755219B22CA
:10015000D205D1621146896A0122824011439B2255
:10016000D20591620021D162704701469B20C005F3
:10017000406A01228A401040002801D001207047C7
:100180000020FCE710B50820FFF7EFFF002802D0A1
:100190000820FFF7DBFF10BD0449C968024608329A
:1001A000012393401943014AD160704740008042C7
:1001B0000449C968021D012393401943014AD160D3
:1001C000704700004000804210B555220A4B5A612A
:1001D0001A46926944000323A3409A43064B9A614E
:1001E0001A46926944000B46A3401A43024B9A6197
:1001F00000225A6110BD00004000804230B55524F5
:10020000194D6C61002814D18524E405246830253B
:10021000AC438525ED052C602C4624680D012C434C
:100220008525ED052C609CB215042C438525ED0534
:100230006C60012814D18524E40524693025AC4381
:100240008525ED052C612C4624690D012C4385255F
:10025000ED052C619CB215042C438525ED056C61E0
:100260000024014D6C6130BD40008042552006499C
:1002700048610846806901210903084302498861F1
:100280000020486170470000400080425521074A25
:10029000516111460968024608320123934019430F
:1002A000024A116000215161704700004000804205
:1002B0005521064A516111460968021D01239340E8
:1002C0001943024A11600021516170474000804289
:1002D0005521064A516111460969012282401143A4
:1002E000024A1161002151617047000040008042C4
:1002F0000146064880680A460832012393401840A8
:10030000002801D0012070470020FCE74000804217
:100310000146064880680A1D0123934018400028C2
:1003200001D0012070470020FCE70000400080421F
:1003300010B50120FFF7ECFF002802D00120FFF7E5
:1003400037FF0020FFF7D4FF002809D10120FFF775
:10035000CFFF002804D10220FFF7CAFF00280FD0EA
:1003600000F028FE0446214606A000F033FD0020E0
:10037000FFF712FF0120FFF70FFF0220FFF70CFF2E
:1003800010BD0000202564200A0D000010B50120DA
:10039000000300F0BFFB4B239B0101220321104609
:1003A000FFF72CFFFFF762FF03210020FFF70CFF90
:1003B00003210120FFF708FF03210220FFF704FFBC
:1003C0001021002000F038F800BF002018494862D2
:1003D00000BF1121012000F02FF800BF00201449B8
:1003E000886200BF1221022000F026F800BF002022
:1003F0000F49086300BF0120FFF75AFF0020FFF7F5
:1004000045FF0120FFF742FF0220FFF73FFF0620D4
:1004100001218140074A116000BF032100F0E6F985
:100420000120FFF755FF012000F092F810BD0000F9
:100430008000005000E100E010B55522434B5A61A6
:1004400012293DD010DC032920D006DC00291AD067
:10045000012919D0022973D117E00F294AD0102998
:100460002CD011296CD12AE0382958D006DC132968
:1004700027D01F293FD02F2962D13DE039294FD005
:100480003F295DD139E000BF00BF00BF2F4AD269CC
:1004900001231B049A432D4BDA611A46D26984006A
:1004A0000F23A3409A43294BDA611A46D26984008C
:1004B0000B46A3401A43254BDA6142E000BF00BF60
:1004C00000BF224AD26901231B041A431F4BDA6181
:1004D0001A46D26984000F23A3409A431B4BDA616A
:1004E0000A07120F83009A40184BDB691A43174B17
:1004F000DA6126E000BF00BF00BF144AD369840060
:100500000F22A2409343114AD3610A07120F8300BE
:100510009A400E4BDB691A430C4BDA6111E000BFC5
:100520000A4AD2690F231B039A43084BDA611A4621
:10053000D2690B071B0C1A43044BDA6101E0FFE799
:1005400000BF00BF0022014B5A6110BD4000804235
:1005500055210D4A5161002807D18521C905096837
:10056000402211438522D2051160012807D185213F
:10057000C9050969402211438522D2051161002174
:10058000014A516170470000400080420449096BF4
:1005900002460832012393401943014A1163704710
:1005A0004000804A10B55522114B9A63104A143A04
:1005B0008300D258130C1B040D4A143A84001351C3
:1005C0008300D2588BB21A43094B143B84001A5152
:1005D0009522D20512690346083301249C40224328
:1005E0009523DB051A610022014B9A6310BD0000C0
:1005F0004000804A01460648C06A0A460832012384
:1006000093401840002801D0012070470020FCE7EB
:100610004000804A10B50020FFF7ECFF002804D00E
:1006200000F004F80020FFF7B1FF10BD1CB500205A
:10063000174908801748488017480088FF30F53070
:1006400000B2154908800020085E1449884202DD86
:10065000481C114908800E490A886846028049886A
:1006600041800D480021415E009800F027F80C49B8
:1006700001906846808808806846C08848800A885B
:10068000684682804988C180019800F0EFF81CBD5F
:1006900016000020B80B000004000020FF7F0000BF
:1006A0001A0000207047704770477047704710B5B8
:1006B000FFF76CFE00F056FB10BD7047F3B583B03A
:1006C0000C46204600F028F8019068460C21415E57
:1006D0000422825E51430D460E21415E0622825E57
:1006E00051430E46A819C01301B2684601800C217F
:1006F000415E0622825E51430F460E21415E042276
:10070000825E514302910298C01BC01301B2684639
:100710004180009805B0F0BD18B502460120C00325
:10072000131899B20846CC17A40E2418A111084634
:1007300003242402204000282CD0FF380138002850
:100740003BD0FF380138002804D0FF38013800289A
:1007500044D10EE00806C00D224C245A684644805D
:10076000C8B2FF24201A40001E4C245A6846048058
:1007700035E0C8B2FF24201A40001A4C245A6846BB
:1007800044800806C00D174C205A404204B2684607
:10079000048024E00806C00D124C205A404204B2E6
:1007A00068464480C8B2FF24201A40000D4C205AED
:1007B000404204B26846048011E0C8B2FF24201A07
:1007C0004000084C205A404204B268464480080663
:1007D000C00D044C245A6846048000E000BF00BFEE
:1007E000009818BDFE0F00007047000010B50028EB
:1007F00019DA1A4A03071B0F083B9B089B00D258C3
:100800008307DC0EFF23A3409A434B071B0E84078C
:10081000E40EA3401A43114B0407240F083CA4081C
:10082000A4001A5118E00E4A03231B02D2188308B1
:100830009B00D2588307DC0EFF23A3409A434B074B
:100840001B0E8407E40EA3401A43054B0324240225
:100850001B198408A4001A5110BD00001CED00E013
:1008600000E100E07047704770470000F1B588B0C4
:1008700069462020085E8449484307906946222043
:10088000085E824909684843404240000690069C41
:10089000069C07996018C10F09184E10069C07990D
:1008A000601AC10F09184D10002E62DA002D1EDAF1
:1008B00004207749087075490B68D9178A0FD11839
:1008C00089107019C217920B12189214891804918A
:1008D0003046F117C90B09184A1404998F1A284693
:1008E000E917C90B09184914791A0591A1E0002CE0
:1008F0001FDC03206649087064490B68D9178A0F0A
:10090000D1188910601BC217920B12189214891803
:1009100004912046E117C90B09184A140499891A51
:1009200005912846E917C90B09184A140599571863
:100930007FE002205649087054490B68D9178A0F86
:10094000D1188910301BC217920B121892148918F3
:1009500005912046E117C90B09184A140599511849
:1009600004913046F117C90B09184A1404998F1ADB
:100970005FE0002D1EDB01204549087043490B68EC
:10098000D9178A0FD11889107019C217920B121833
:100990009214891A05912846E917C90B09184A14B7
:1009A000059957183046F117C90B09184914C91988
:1009B00004913EE0002C1EDC0520354908703349C7
:1009C0000B68D9178A0FD1188910A01BC217920B78
:1009D000121892148F183046F117C90B09184914D0
:1009E000C91904912046E117C90B09184A14049942
:1009F000891A05911DE000202549087023490B68DC
:100A0000D9178A0FD1188910281BC217920B1218F8
:100A100092148F182846E917C90B09184914791A36
:100A200005912046E117C90B09184A140599511878
:100A30000491B8B20390059880B20290049880B2F5
:100A40000190039918310020FFF7ACFD039801468F
:100A500018390320FFF7A6FD029918310120FFF78E
:100A6000A1FD0298014618390420FFF79BFD01996A
:100A700018310220FFF796FD01980146183905202C
:100A8000FFF790FD09B0F0BDE781000024000020D1
:100A9000200000207047000010B50246094B00BF3F
:100AA00000F040F8002800D003E018465B1E002844
:100AB000F6D100BF04481043052424076062204695
:100AC000416010BD102700000000695A0521090788
:100AD00088607047014605221207106A800880006E
:100AE00002460A43104682B2024B1A4305231B07F3
:100AF0001A6270470000695A05210907086A08212F
:100B0000084381B2024A114305221207116270475D
:100B10000000695A05210907C96801430522120727
:100B2000D160704705200007806AC007C00F70477A
:100B30007047704710B505200007406A002804D0B0
:100B4000012811D0022814D10FE005200007006A07
:100B50008007800F032803D11C481D49086002E06C
:100B60001C481B49086004E003E01B481849086062
:100B700000BF00BF052000074068002809D00520FD
:100B800000074068410012480068FFF7B5FA1049B5
:100B9000086005200007806800280AD005200007AB
:100BA000806841000D480068FFF7A6FA0B4908600D
:100BB00003E00748006809490860094904480068DB
:100BC000FFF79AFA0749086010BD0000006CDC02CC
:100BD000440000200090D003409C0000480000200A
:100BE00040420F004C00002010B5FFF7A3FF10BDDE
:100BF00010B500BF99201049C86300BF00BF08604E
:100C000000BF00BF486000BF00BF886000BF00BFDA
:100C1000C86000BF00BF086100BF0320FFF75AFF94
:100C2000FFF76AFF00210846FFF736FF0020FFF7B5
:100C30004DFFFFF77FFF10BDC0010050704710B59A
:100C400000F001F810BD70477047000010B5452056
:100C5000000600690007000F204908600846006888
:100C60004008086045200006006A1D4908601B48CE
:100C70000068030000F0BEF80705060A0B2F2F14CA
:100C80002F0028E001201749086024E023E01448E1
:100C900000681348006812480068114800681AE0AC
:100CA0000020114908600BE04520000600F08CF898
:100CB000C1B20D480468601C0B4A10600B48015516
:100CC00045200006006AC007C00F0028ECD10120B3
:100CD0000749086000BF00BF10BD000030000020C1
:100CE000340000202C00002038000020500000209C
:100CF00028000020FFB581B0044615461E460A9F15
:100D0000A06980098001A061A16928463043384369
:100D10000143A1610449096808090299FFF7ECF948
:100D2000A06005B0F0BD000048000020C16A10229C
:100D30001143C162704770B5049C95010E013543A3
:100D40009E003543660035436D1C456170BDC1682A
:100D500001221143C1607047C16802221143C16082
:100D60007047000008B51020FFF7D4FE00200346AE
:100D700003224B21C901009045200006FFF7BAFF6E
:100D800045200006FFF7D2FF01200346002211464E
:100D9000009045200006FFF7CEFF00BF092009495B
:100DA000C86000BF00BF082006498039C86300BF83
:100DB00045200006FFF7D0FF45200006FFF7C7FFDC
:100DC00008BD0000C0000050014608687047704729
:100DD000704700000FB410B503A9044B044A0298F1
:100DE00000F026F810BC08BC04B01847810F0000C2
:100DF0003C00002030B47446641E2578641CAB426D
:100E000004D3635D5B00E31830BC18471D46F8E768
:100E100002E008C8121F08C1002AFAD170477047C3
:100E2000002001E001C1121F002AFBD17047000021
:100E3000FFB58DB00446002506E025280AD0109A9B
:100E40000F999047641C6D1C20780028F5D1284626
:100E500011B0F0BD00270121484A009700E0074388
:100E6000641C23780846203B98401042F7D1207834
:100E70002E2817D1042007436078641C2A280CD13F
:100E80000E98641C02C800910E900BE000990A2293
:100E9000514330394018641C0090207801463039A5
:100EA0000929F3D920780028D1D0642808D06928EE
:100EB00006D075281ED0109A0F9990476D1C5BE0E4
:100EC0000A200E99019001C90E91002802DA4042D1
:100ED0002D2102E0390504D52B216A46117201212A
:100EE00003E0F90704D02021F7E70BAE0B910DE0EA
:100EF0000021FAE70A200E99019001C90E91F7E747
:100F00000199FFF7F9F83031761E31700028F7D1DA
:100F100003A8801B20300190780701D5009801E0DC
:100F2000012000900199884201DD401A00E0002074
:100F30000027009006E002A8109AC05D0F99904724
:100F40006D1C7F1C0B988742F5DB04E0109A302063
:100F50000F9990476D1C0099481E00900029F5DC00
:100F600005E03078109A761C0F9990476D1C019916
:100F7000481E01900029F4DC641C65E70928010083
:100F800000BF45221206126A20231A40002AF8D018
:100F90004522120650600A280BD100BF45221206D6
:100FA000126A20231A40002AF8D00D2245231B067E
:100FB0005A6070470020A721C905C9680222114064
:100FC000002901D004210843A721C905C9680422CA
:100FD0001140002901D002210843A721C905C96891
:100FE00010221140002901D0012108437047FFF76A
:100FF000FFFDFFF79DFDFFF75AFB00BFFEE7000076
:10100000C90092015B022403ED03B6047F05480684
:101010001107D907A2086A09330AFB0AC40B8C0C12
:10102000540D1C0EE30EAB0F72103A110112C812D0
:101030008F1355141C15E215A8166E173318F918DE
:10104000BE19821A471B0B1CCF1C931D571E1A1F5B
:10105000DD1F9F2061212322E522A6236724282566
:10106000E825A82667272628E528A329612A1F2B1B
:10107000DC2B992C552D112ECC2E872F4130FB3097
:10108000B5316E322633DF3396344D350436BA36F9
:101090006F372438D9388C39403AF23AA53B563C60
:1010A000073DB83D683E173FC53F73402141CE41E3
:1010B0007A422543D0437A442445CD4575461C47A2
:1010C000C34769480F49B449584AFB4A9D4B3F4CB6
:1010D000E04C814D204EBF4E5D4FFB4F975033513A
:1010E000CE51685202539B533254C9546055F55542
:1010F0008A561D57B0574258D3586459F359825AEB
:101100000F5B9C5B285CB35C3E5DC75D4F5ED75E4A
:101110005D5FE35F6860EB606E61F0617162F16278
:101120007063EE636C64E8646365DD655666CF6684
:101130004667BC673268A66819698B69FD696D6A84
:10114000DC6A4A6BB76B236C8E6CF86C616DC96D91
:10115000306E966EFB6E5E6FC16F22708370E270B0
:1011600040719D71F9715472AE7207735E73B573FD
:101170000A745F74B27404755575A575F37541767C
:101180008D76D87622776B77B377FA773F78847845
:10119000C77809794A798979C879057A417A7C7A58
:1011A000B67AEE7A267B5C7B917BC57BF87B297CCB
:1011B000597C887CB67CE37C0E7D397D627D897D9F
:1011C000B07DD57DFA7D1D7E3E7E5F7E7E7E9C7EDF
:1011D000B97ED57EEF7E097F217F377F4D7F617F8E
:1011E000747F867F977FA67FB47FC17FCD7FD87FB6
:1011F000E17FE97FF07FF57FF97FFD7FFE7F0000D3
:10120000201200000000002050000000100E00001E
:10121000701200005000002020080000200E000086
:10122000000000000080000000000000000000003E
:1012300000000000000000000000000000000000AE
:1012400000000000802500000000000000000000F9
:10125000000000000000000000000000000000008E
:10126000000000000090D0030090D0034000000078
:04000005000000C136
:00000001FF
