:020000040000FA
:1000000078080020D9000000E9080000AD070000D2
:1000100000000000000000000000000000000000E0
:10002000000000000000000000000000250A0000A1
:100030000000000000000000210A0000090D00007F
:10004000A5070000ED000000A7070000A9070000B9
:10005000AB070000EB000000F1020000A30200006B
:10006000EB0000009F10000071050000EB00000095
:10007000DD020000A1020000EB000000210E0000E4
:10008000250E0000EB000000EB000000150E000044
:10009000170E0000EB000000EB0000009D100000B8
:1000A000BB070000EB000000230A0000EB0000008B
:1000B000EB000000EB000000EB000000510C000022
:1000C0000448854600F074F8004800478912000093
:1000D000C046C046780800200548804705480047CC
:1000E000FEE7FEE7FEE7FEE7FEE7FEE7FEE70000CD
:1000F0000D0E0000C100000030B50B460146002087
:100100002022012409E00D46D5409D4205D31D461D
:100110009540491B2546954040191546521E002D15
:10012000F1DC30BD70B5064600F0D8FF0468054626
:100130000A220021304600F003F82C6070BD000058
:10014000F7B5009C0F4600262578641C002D05D0CD
:1001500000F040F80068405DC007F5D12B2D02D0BB
:100160002D2D18D0641E39462046029A00F036F82C
:10017000002F04D03968A14201D10099396071057E
:10018000022400290BDA4042002803DD00F0A6FF1C
:100190000460A007FEBD012080020643E3E70028BB
:1001A000F8DA00F09BFF04600048FEBDFFFFFF7F10
:1001B000064C0125064E05E0E36807CC2B430C3CBA
:1001C00098471034B442F7D3FFF77EFF281500009C
:1001D000481500000048704724150000F7B582B0AC
:1001E000029C00272078641C15460197302802D015
:1001F000002D15D015E020780127641C782804D044
:10020000582802D0002D09D00BE0002D01D0102D70
:1002100007D1002710252078641C02E0082500E0A3
:100220000A250026009610E0009901276943081866
:10023000020C294680B2714300908E183804864221
:1002400001D3012001902078641C294600F019F8A0
:100250000028E9DA0398002805D0002F01D0641E99
:1002600000E0029C04600198002806D000F036FFF0
:1002700002210160C81E05B0F0BD0099300408439A
:10028000F9E73A2800D23038202302469A43412A1F
:1002900001D310463738884201D30020C04370474D
:1002A0007047704755219B22D205D1621146896A59
:1002B0000122824011439B22D20591620021D1622A
:1002C000704701469B20C005406A01228A401040C9
:1002D000002801D0012070470020FCE710B508205D
:1002E000FFF7EFFF002802D00820FFF7DBFF10BD6B
:1002F000704700005520054988630846C0684000E3
:100300004008C86000208863704700004000804AB1
:100310000449096B02460832012393401943014AFC
:10032000116370474000804A10B555220D4B9A6307
:100330000D4A9523DB051A601A46526884000F2384
:10034000A3409A439523DB055A601A4652688400FD
:100350000B46A3401A439523DB055A600022014B4C
:100360009A6310BD4000804A0101010010B555227A
:100370000A4B9A638BB2094A2C3A84001351952296
:10038000D20512690346083301249C402243952379
:10039000DB051A610022014B9A6310BD4000804AC0
:1003A00010B55522114B9A63104A143A8300D25863
:1003B000130C1B040D4A143A840013518300D258C5
:1003C0008BB21A43094B143B84001A519522D20573
:1003D00012690346083301249C4022439523DB0520
:1003E0001A610022014B9A6310BD00004000804A50
:1003F00010B555220D4B9A639522D2051269430020
:10040000103303249C40A2439523DB051A611A464E
:100410001269430010330C469C4022439523DB05B0
:100420001A610022014B9A6310BD00004000804A0F
:100430005521094A91639521C90589680F229205C2
:1004400091439522D20591601146896801439160DC
:100450000021014A916370474000804A55211C4A9F
:100460009163C107C90F002903D10221014000296E
:1004700008D09521C905896801221204914395226B
:10048000D205916004210140002903D108210140D7
:10049000002908D09521C905896801225204914399
:1004A0009522D205916010210140002903D120211D
:1004B0000140002908D09521C905896801229204CC
:1004C00091439522D20591600021014A91637047C2
:1004D0004000804A5521064A91639521C9058968E3
:1004E00001439522D20591600021014A9163704732
:1004F0004000804A5521044A9163114689680143AE
:1005000091600021916370474000804A5521054A5F
:1005100091631146496A02021143024A5162002165
:10052000916370474000804A5521074A91639521A5
:10053000C9058968020211439522D2059160002104
:10054000014A9163704700004000804A70470000F4
:1005500001460648C06A0A46083201239340184003
:10056000002801D0012070470020FCE74000804AAD
:1005700010B50020FFF7ECFF002804D000F0D6F8FB
:100580000020FFF7C5FE10BD10B5FFF7DFFF00F03C
:1005900001F810BD10B501204005FFF749FF01200B
:1005A000400500F095FB05210020FFF7BDFE052169
:1005B0000220FFF7B9FE05210420FFF7B5FE052153
:1005C0000120FFF7B1FE05210320FFF7ADFE052155
:1005D0000846FFF7A9FE4B2189010020FFF7C6FE60
:1005E0004B2189010220FFF7C1FE4B218901042024
:1005F000FFF7BCFE4B2189010120FFF7B7FE4B211D
:1006000089010320FFF7B2FE4B2189010520FFF786
:10061000ADFE00210846FFF7C3FE00210220FFF7D0
:10062000BFFE00210420FFF7BBFE00210120FFF7E1
:10063000B7FE00210320FFF7B3FE00210520FFF7DE
:10064000AFFE3F20FFF70AFF3820FFF76DFF3F2086
:10065000FFF740FF00210846FFF7CAFE00210220F5
:10066000FFF7C6FE00210420FFF7C2FE0021012093
:10067000FFF7BEFE00210320FFF7BAFE0021052090
:10068000FFF7B6FEFFF736FE0120FFF73FFF0A2017
:1006900001218140114A116000BF032100F084F95B
:1006A00000BF06200E49486000BF00BF086100BFC0
:1006B00000BF486100BF00BF886100BF00BFC861C4
:1006C00000BF00BF06498031C86100BF3F20FFF76F
:1006D00011FF3F2000F006F810BD000000E100E02F
:1006E000400000505521064A91639521C905C9680B
:1006F00001439522D205D1600021014A91637047E0
:100700004000804A5521084A91639521C905C9686E
:1007100081439522D205D1601146096901431161D7
:100720000021014A916370474000804A1CB50020B7
:10073000184908807D204001488017480088FF3014
:10074000F53000B2144908800020085E1349884241
:1007500002DD481C104908800E490A88684602805C
:10076000498841800C480021415E009800F026F83D
:100770000B4901906846808808806846C088488098
:100780000A88684682804988C180019800F04CF947
:100790001CBD00001600002004000020FF7F0000A8
:1007A0001A0000207047704770477047704710B5B7
:1007B000FFF7EAFE00F0C2FB10BD7047F3B583B04F
:1007C0000C46204600F028F8019068460C21415E56
:1007D0000422825E51430D460E21415E0622825E56
:1007E00051430E46A819C01301B2684601800C217E
:1007F000415E0622825E51430F460E21415E042275
:10080000825E514302910298C01BC01301B2684638
:100810004180009805B0F0BD18B502460120C00324
:10082000131899B20846CC17A40E2418A111084633
:1008300003242402204000282CD0FF38013800284F
:100840003BD0FF380138002804D0FF380138002899
:1008500044D10EE00806C00D224C245A684644805C
:10086000C8B2FF24201A40001E4C245A6846048057
:1008700035E0C8B2FF24201A40001A4C245A6846BA
:1008800044800806C00D174C205A404204B2684606
:10089000048024E00806C00D124C205A404204B2E5
:1008A00068464480C8B2FF24201A40000D4C205AEC
:1008B000404204B26846048011E0C8B2FF24201A06
:1008C0004000084C205A404204B268464480080662
:1008D000C00D044C245A6846048000E000BF00BFED
:1008E000009818BDA212000070470000C206D20E88
:1008F00001219140014A11607047000000E100E0D1
:1009000010B50121032000F013F80320FFF7EEFFDC
:100910000321102000F00CF81020FFF7E7FF0C2057
:10092000FFF7E4FF02210C2000F002F810BD0000E8
:1009300010B5002819DA1A4A03071B0F083B9B0859
:100940009B00D2588307DC0EFF23A3409A434B073A
:100950001B0E8407E40EA3401A43114B0407240F17
:10096000083CA408A4001A5118E00E4A03231B02F5
:10097000D21883089B00D2588307DC0EFF23A340C4
:100980009A434B071B0E8407E40EA3401A43054B02
:10099000032424021B198408A4001A5110BD00006E
:1009A0001CED00E000E100E010B5002819DA1A4A59
:1009B00003071B0F083B9B089B00D2588307DC0EE4
:1009C000FF23A3409A434B071B0E8407E40EA3406A
:1009D0001A43114B0407240F083CA408A4001A5121
:1009E00018E00E4A03231B02D21883089B00D2583A
:1009F0008307DC0EFF23A3409A434B071B0E84079B
:100A0000E40EA3401A43054B032424021B19840857
:100A1000A4001A5110BD00001CED00E000E100E050
:100A20007047704770470000F1B588B069462020D4
:100A3000085E84494843079069462220085E82493F
:100A400009684843404240000690069C069C07996E
:100A50006018C10F09184E10069C0799601AC10F43
:100A600009184D10002E62DA002D1EDA0420774995
:100A7000087075490B68D9178A0FD1188910701939
:100A8000C217920B12189214891804913046F1176C
:100A9000C90B09184A1404998F1A2846E917C90B7B
:100AA00009184914791A0591A1E0002C1FDC0320D4
:100AB0006649087064490B68D9178A0FD1188910E4
:100AC000601BC217920B12189214891804912046C9
:100AD000E117C90B09184A140499891A0591284687
:100AE000E917C90B09184A14059957187FE0022025
:100AF0005649087054490B68D9178A0FD1188910C4
:100B0000301BC217920B12189214891805912046B7
:100B1000E117C90B09184A14059951180491304678
:100B2000F117C90B09184A1404998F1A5FE0002DB8
:100B30001EDB01204549087043490B68D9178A0F0D
:100B4000D11889107019C217920B12189214891AB1
:100B500005912846E917C90B09184A140599571831
:100B60003046F117C90B09184914C91904913EE020
:100B7000002C1EDC05203549087033490B68D91755
:100B80008A0FD1188910A01BC217920B1218921449
:100B90008F183046F117C90B09184914C919049167
:100BA0002046E117C90B09184A140499891A0591BE
:100BB0001DE000202549087023490B68D9178A0FCA
:100BC000D1188910281BC217920B121892148F1873
:100BD0002846E917C90B09184914791A05912046C6
:100BE000E117C90B09184A14059951180491B8B2B4
:100BF0000390059880B20290049880B20190039906
:100C000018310020FFF7CCFB039801461839032068
:100C1000FFF7C6FB029918310120FFF7C1FB0298CC
:100C2000014618390420FFF7BBFB01991831022057
:100C3000FFF7B6FB0198014618390520FFF7B0FB16
:100C400009B0F0BDE78100002C0000202800002042
:100C50007047000010B50246094B00BF00F040F895
:100C6000002800D003E018465B1E0028F6D100BF24
:100C7000044810430524240760622046416010BDEB
:100C8000102700000000695A052109078860704795
:100C9000014605221207106A8008800002460A43B6
:100CA000104682B2024B1A4305231B071A62704793
:100CB0000000695A05210907086A0821084381B222
:100CC000024A114305221207116270470000695A57
:100CD00005210907C968014305221207D160704741
:100CE00005200007806AC007C00F704705480068EC
:100CF000012804D10020034908600120704700202A
:100D0000FCE70000300000207047000010B500BF75
:100D100099201049C86300BF00BF086000BF00BF32
:100D2000486000BF00BF886000BF00BFC86000BF50
:100D300000BF086100BF0320FFF7AAFFFFF7BAFF5B
:100D400000210846FFF786FF0020FFF79DFF00F017
:100D500003F810BDC001005010B505200007406A1F
:100D6000002804D0012811D0022814D10FE005205A
:100D70000007006A8007800F032803D11C481D4923
:100D8000086002E01C481B49086004E003E01B48BF
:100D90001849086000BF00BF052000074068002810
:100DA00009D0052000074068410012480068FFF79D
:100DB000A3F91049086005200007806800280AD0C0
:100DC00005200007806841000D480068FFF794F98E
:100DD0000B49086003E007480068094908600949B1
:100DE00004480068FFF788F90749086010BD000053
:100DF000006CDC02440000200090D003409C000006
:100E00004800002040420F004C00002010B5FFF7C2
:100E1000A3FF10BD704710B500F001F810BD70477A
:100E20007047000010B54520000600690007000F5C
:100E30002049086008460068400808604520000610
:100E4000006A1D4908601B480068030000F038F97B
:100E50000705060A0B2F2F142F0028E00120174941
:100E6000086024E023E01448006813480068124832
:100E70000068114800681AE00020114908600BE082
:100E80004520000600F08CF8C1B20D480468601CD3
:100E90000B4A10600B48015545200006006AC00748
:100EA000C00F0028ECD101200749086000BF00BF37
:100EB00010BD0000380000203C000020340000205D
:100EC000400000205400002030000020FFB581B019
:100ED000044615461E460A9FA06980098001A0614C
:100EE000A1692846304338430143A1610449096898
:100EF00008090299FFF700F9A06005B0F0BD0000F5
:100F000048000020C16A10221143C162704770B5C9
:100F1000049C95010E0135439E0035436600354320
:100F20006D1C456170BDC16801221143C1607047ED
:100F3000C16802221143C1607047000008B510204B
:100F4000FFF7C6FE0020034603224B21C901009093
:100F500045200006FFF7BAFF45200006FFF7D2FF45
:100F60000120034600221146009045200006FFF7AD
:100F7000CEFF00BF09200949C86000BF00BF08209C
:100F800006498039C86300BF45200006FFF7D0FF3F
:100F900045200006FFF7C7FF08BD0000C000005055
:100FA000014608687047000070B500240025FFF76F
:100FB0009DFE012839D11D480078732816D11B48A1
:100FC0004078302806D11AA000F06AF801253F20A9
:100FD000FFF798FB15484078312826D13F20FFF7CE
:100FE00081FB1EA000F05CF801251EE00F48007890
:100FF000762803D00D480078562816D10B48407843
:10100000202812D10948801CFFF78CF80446002CD8
:101010000BDB642C09DCFA20604300B21A494880DB
:1010200021461AA000F03CF8012570BD54000020B4
:101030000A0D4D6F746F725F4374726C2E4D6F7436
:101040006F725F737461747573203D204D4F544F00
:10105000525F53544F500A0D000000000A0D4D6FAF
:10106000746F725F4374726C2E4D6F746F725F7326
:101070007461747573203D204D4F544F525F53542B
:1010800041525455500A0D00160000200A0DCBD9CC
:10109000B6C83A2025640A0D00000000704770476A
:1010A0000FB410B503A9044B044A029800F02AF8C3
:1010B00010BC08BC04B018475512000020000020E6
:1010C00030B47446641E2578641CAB4204D3635D5F
:1010D0005B00E31830BC18471D46F8E7004870472E
:1010E0005000002002E008C8121F08C1002AFAD1EF
:1010F00070477047002001E001C1121F002AFBD198
:1011000070470000FFB58DB00446002506E0252895
:101110000AD0109A0F999047641C6D1C2078002803
:10112000F5D1284611B0F0BD00270121484A0097AB
:1011300000E00743641C23780846203B9840104297
:10114000F7D120782E2817D1042007436078641C3B
:101150002A280CD10E98641C02C800910E900BE056
:1011600000990A22514330394018641C00902078BD
:10117000014630390929F3D920780028D1D06428D4
:1011800008D0692806D075281ED0109A0F9990476C
:101190006D1C5BE00A200E99019001C90E91002898
:1011A00002DA40422D2102E0390504D52B216A469E
:1011B0001172012103E0F90704D02021F7E70BAEFB
:1011C0000B910DE00021FAE70A200E99019001C968
:1011D0000E91F7E70199FEF78FFF3031761E3170DF
:1011E0000028F7D103A8801B20300190780701D593
:1011F000009801E0012000900199884201DD401A29
:1012000000E000200027009006E002A8109AC05DD0
:101210000F9990476D1C7F1C0B988742F5DB04E00B
:10122000109A30200F9990476D1C0099481E00902D
:101230000029F5DC05E03078109A761C0F9990476C
:101240006D1C0199481E01900029F4DC641C65E7BF
:101250000928010000BF45221206126A20231A4005
:10126000002AF8D04522120650600A280BD100BF90
:1012700045221206126A20231A40002AF8D00D22B5
:1012800045231B065A607047FFF740FDFFF78FFAB2
:10129000FFF736FB3F20FFF735FA01E0FFF784FE4A
:1012A000FCE70000C90092015B022403ED03B604D1
:1012B0007F0548061107D907A2086A09330AFB0A05
:1012C000C40B8C0C540D1C0EE30EAB0F72103A11B4
:1012D0000112C8128F1355141C15E215A8166E17AB
:1012E0003318F918BE19821A471B0B1CCF1C931D0B
:1012F000571E1A1FDD1F9F2061212322E522A623EE
:1013000067242825E825A82667272628E528A32975
:10131000612A1F2BDC2B992C552D112ECC2E872FBB
:101320004130FB30B5316E322633DF3396344D35E4
:101330000436BA366F372438D9388C39403AF23A05
:10134000A53B563C073DB83D683E173FC53F73403F
:101350002141CE417A422543D0437A442445CD45AC
:1013600075461C47C34769480F49B449584AFB4A68
:101370009D4B3F4CE04C814D204EBF4E5D4FFB4F8F
:1013800097503351CE51685202539B533254C95433
:101390006055F5558A561D57B0574258D358645971
:1013A000F359825A0F5B9C5B285CB35C3E5DC75D62
:1013B0004F5ED75E5D5FE35F6860EB606E61F0611A
:1013C0007162F1627063EE636C64E8646365DD65AD
:1013D0005666CF664667BC673268A66819698B692E
:1013E000FD696D6ADC6A4A6BB76B236C8E6CF86CB6
:1013F000616DC96D306E966EFB6E5E6FC16F22704F
:101400008370E27040719D71F9715472AE7207730E
:101410005E73B5730A745F74B27404755575A575FF
:10142000F37541768D76D87622776B77B377FA7736
:101430003F788478C77809794A798979C879057AB3
:10144000417A7C7AB67AEE7A267B5C7B917BC57B8F
:10145000F87B297C597C887CB67CE37C0E7D397DC9
:10146000627D897DB07DD57DFA7D1D7E3E7E5F7E6D
:101470007E7E9C7EB97ED57EEF7E097F217F377F81
:101480004D7F617F747F867F977FA67FB47FC17F0A
:10149000CD7FD87FE17FE97FF07FF57FF97FFD7F0A
:1014A000FE7F00404040404040404040414141417B
:1014B000414040404040404040404040404040402B
:1014C000404040050202020202020202020202023F
:1014D00002020220202020202020202020020202C0
:1014E0000202020290909090909010101010101034
:1014F0001010101010101010101010101010020208
:101500000202020288888888888808080808080873
:101510000808080808080808080808080808020257
:1015200002024000A3140000481500000000002043
:1015300054000000E41000009C150000540000203E
:1015400024080000F41000000000000000800000EB
:10155000000000000000000000000000000000008B
:10156000000000000000000000000000000000007B
:1015700000000000802500000000000000000000C6
:101580000000000000000000000000000090D003F8
:0C1590000090D0034000000000000000AC
:04000005000000C136
:00000001FF
