:020000040000FA
:1000000088080020D9000000A90800006907000046
:1000100000000000000000000000000000000000E0
:10002000000000000000000000000000890900003E
:100030000000000000000000850900002F0C0000F7
:1000400061070000ED000000630700006507000085
:1000500067070000EB000000350200004B010000C4
:10006000EB000000C50E000099050000EB00000049
:100070008501000049010000EB0000003D0D00007B
:10008000410D0000EB000000EB000000390D000006
:100090003B0D0000EB000000EB000000C30E000071
:1000A0007B070000EB00000087090000EB00000068
:1000B000EB000000EB000000EB000000910B0000E3
:1000C0000448854600F02EF800480047690F0000FC
:1000D000C046C046880800200548804705480047BC
:1000E000FEE7FEE7FEE7FEE7FEE7FEE7FEE70000CD
:1000F000E50C0000C100000030B50B4601460020B1
:100100002022012409E00D46D5409D4205D31D461D
:100110009540491B2546954040191546521E002D15
:10012000F1DC30BD064C0125064E05E0E36807CC46
:100130002B430C3C98471034B442F7D3FFF7C4FF6D
:1001400078110000981100007047704755219B22DC
:10015000D205D1621146896A0122824011439B2255
:10016000D20591620021D162704701469B20C005F3
:10017000406A01228A401040002801D001207047C7
:100180000020FCE710B51E20FFF7EFFF00280CD081
:1001900006480078002802D105A000F095FE08A0CE
:1001A00000F092FE1E20FFF7D1FF10BD14000020CA
:1001B000466972737420747269676765720A0D000C
:1001C000000000000449C968024608320123934038
:1001D0001943014AD1607047400080420449C96810
:1001E000021D012393401943014AD160704700006A
:1001F000400080420146064880680A4608320123D2
:1002000093401840002801D0012070470020FCE7EF
:10021000400080420146064880680A1D0123934041
:100220001840002801D0012070470020FCE70000A2
:100230004000804210B50120FFF7ECFF002802D0FB
:100240000120FFF7CBFF0020FFF7D4FF002809D1E2
:100250000120FFF7CFFF002804D10220FFF7CAFFDB
:10026000002808D00020FFF7ADFF0120FFF7AAFF0C
:100270000220FFF7A7FF10BD5520054988630846F7
:10028000C06840004008C8600020886370470000D4
:100290004000804A0449096B02460832012393401A
:1002A0001943014A116370474000804A30B5552315
:1002B0000B4CA3638CB213041C43094B143B850005
:1002C0005C519523DB051B69044608340125A540D4
:1002D0002B439524E40523610023014CA36330BD27
:1002E0004000804A10B555220D4B9A630D4A952364
:1002F000DB051A601A46526884000F23A3409A4314
:100300009523DB055A601A46526884000B46A340C9
:100310001A439523DB055A600022014B9A6310BDF6
:100320004000804A0101010010B555220A4B9A6332
:100330008BB2094A2C3A840013519522D2051269D6
:100340000346083301249C4022439523DB051A61B0
:100350000022014B9A6310BD4000804A70B55524BD
:10036000074DAC63CC0415042C439DB22C43044DC3
:100370001C358600AC510024014DAC6370BD0000FB
:100380004000804A10B555220D4B9A639522D20544
:1003900012694300103303249C40A2439523DB05DC
:1003A0001A611A461269430010330C469C402243DE
:1003B0009523DB051A610022014B9A6310BD0000F2
:1003C0004000804A5521094A91639521C9058968F1
:1003D0000F22920591439522D205916011468968BA
:1003E000014391600021014A916370474000804AB7
:1003F0005521074A91639521C905896802029143F5
:100400009522D20591600021014A91637047000056
:100410004000804A5521064A91639521C9058968A3
:1004200001439522D20591600021014A91637047F2
:100430004000804A10B555220D4B9A631A46536806
:1004400084000F22A240FF24240622439343084A3B
:100450005360536884000A46A24055246406224330
:100460001343034A53600022014B9A6310BD0000FE
:100470004000804A5522304B9A63C207D20F002AAF
:1004800003D102220240002A15D09522D20592689B
:1004900001231B041A439523DB059A60264A12693F
:1004A000920A9202244B1A611A4612698B059B0D1F
:1004B0001A43214B1A6104220240002A03D1082268
:1004C0000240002A15D09522D205926801235B04D0
:1004D0001A439523DB059A60174A1269174B1A4095
:1004E000154B1A611A4612698B051B0B1A43124BE6
:1004F0001A6110220240002A03D120220240002A61
:1005000015D09522D205926801239B041A439523A6
:10051000DB059A60084A1269094B1A40064B1A61BA
:100520001A4612698B059B081A43034B1A61002275
:10053000014B9A63704700004000804AFF03F0FFC0
:10054000FFFF0FC05521044A91631146896801439A
:1005500091600021916370474000804A5521054A0F
:1005600091631146496A02021143024A5162002115
:10057000916370474000804A01460648C06A0A46B7
:100580000832012393401840002801D00120704711
:100590000020FCE74000804A10B50020FFF7ECFF88
:1005A000002804D000F0A0F80020FFF773FE10BD73
:1005B00010B50B204005FFF705FF0120400500F0B6
:1005C00027FB05210020FFF78DFE05210220FFF704
:1005D00089FE05210420FFF785FE4B2189010020BB
:1005E000FFF7A2FE4B2189010220FFF79DFE4B2160
:1005F00089010420FFF798FE002211461046FFF7FC
:1006000055FE002211460220FFF750FE002211463F
:100610000420FFF74BFE1E211520FFF72BFF3F2084
:10062000FFF7E6FE1520FFF7F5FE00210846FFF76D
:10063000A9FE00210220FFF7A5FE00210420FFF7FC
:10064000A1FEFFF719FE0120FFF788FF7D23DB00E5
:10065000002211461046FFF781FE00BF062019490F
:10066000486000BF00BF086100BF00BF486100BF15
:1006700000BF886100BF00BFC86100BF00BF114953
:100680008031C86100BF00210846FFF7D3FE022178
:100690000120FFF7CFFE04210220FFF7CBFE01214E
:1006A0000320FFF7C7FE03210420FFF7C3FE052147
:1006B0000846FFF7BFFE3F20FFF744FF152000F07C
:1006C00003F810BD400000505521064A9163952162
:1006D000C905C96801439522D205D1600021014AAC
:1006E000916370474000804A1CB50020174908807C
:1006F0001748488017480088FF30F53000B2154988
:1007000008800020085E1449884202DD481C114917
:1007100008800E490A8868460280498841800D4851
:100720000021415E009800F029F80C4901906846CC
:10073000808808806846C08848800A886846828029
:100740004988C180019800F021F91CBD2C000020CF
:10075000B80B00001A000020FF7F000030000020CE
:100760007047704770477047704710B5FFF720FF1C
:1007700000F072FB00F0A4F810BD7047F3B583B031
:100780000C46204600F028F8019068460C21415E96
:100790000422825E51430D460E21415E0622825E96
:1007A00051430E46A819C01301B2684601800C21BE
:1007B000415E0622825E51430F460E21415E0422B5
:1007C000825E514302910298C01BC01301B2684679
:1007D0004180009805B0F0BD18B502460120C00365
:1007E000131899B20846CC17A40E2418A111084674
:1007F00003242402204000282CD0FF380138002890
:100800003BD0FF380138002804D0FF3801380028D9
:1008100044D10EE00806C00D224C245A684644809C
:10082000C8B2FF24201A40001E4C245A6846048097
:1008300035E0C8B2FF24201A40001A4C245A6846FA
:1008400044800806C00D174C205A404204B2684646
:10085000048024E00806C00D124C205A404204B225
:1008600068464480C8B2FF24201A40000D4C205A2C
:10087000404204B26846048011E0C8B2FF24201A46
:100880004000084C205A404204B2684644800806A2
:10089000C00D044C245A6846048000E000BF00BF2D
:1008A000009818BD780F000070470000C206D20EF5
:1008B00001219140014A11607047000000E100E011
:1008C00010B50021062000F021F80620FFF7EEFF0A
:1008D0000321102000F01AF81020FFF7E7FF0C208A
:1008E000FFF7E4FF00210C2000F010F80A20FFF7CA
:1008F000DDFF03210A2000F009F81420FFF7D6FFDE
:100900000321142000F002F810BD000010B50028EB
:1009100019DA1A4A03071B0F083B9B089B00D258A1
:100920008307DC0EFF23A3409A434B071B0E84076B
:10093000E40EA3401A43114B0407240F083CA408FB
:10094000A4001A5118E00E4A03231B02D218830890
:100950009B00D2588307DC0EFF23A3409A434B072A
:100960001B0E8407E40EA3401A43054B0324240204
:100970001B198408A4001A5110BD00001CED00E0F2
:1009800000E100E07047704770470000F1B588B0A3
:1009900069462020085E7B4948430790694622202B
:1009A000085E794909684843404240000690069C29
:1009B000069C07996018C10F09184E10069C0799EC
:1009C000601AC10F09184D10002E62DA002D1EDAD0
:1009D00004206E4908706C490B68D9178A0FD1182A
:1009E00089107019C217920B121892148918049169
:1009F0003046F117C90B09184A1404998F1A284672
:100A0000E917C90B09184914791A0591A1E0002CBE
:100A10001FDC03205D4908705B490B68D9178A0FFA
:100A2000D1188910601BC217920B121892148918E2
:100A300004912046E117C90B09184A140499891A30
:100A400005912846E917C90B09184A140599571842
:100A50007FE002204D4908704B490B68D9178A0F77
:100A6000D1188910301BC217920B121892148918D2
:100A700005912046E117C90B09184A140599511828
:100A800004913046F117C90B09184A1404998F1ABA
:100A90005FE0002D1EDB01203C4908703A490B68DD
:100AA000D9178A0FD11889107019C217920B121812
:100AB0009214891A05912846E917C90B09184A1496
:100AC000059957183046F117C90B09184914C91967
:100AD00004913EE0002C1EDC05202C4908702A49B8
:100AE0000B68D9178A0FD1188910A01BC217920B57
:100AF000121892148F183046F117C90B09184914AF
:100B0000C91904912046E117C90B09184A14049920
:100B1000891A05911DE000201C4908701A490B68CC
:100B2000D9178A0FD1188910281BC217920B1218D7
:100B300092148F182846E917C90B09184914791A15
:100B400005912046E117C90B09184A140599511857
:100B50000491B8B20390059880B20290049880B2D4
:100B60000190039A11460020FFF7A0FB029A11465C
:100B70000220FFF79BFB019A11460420FFF796FB2A
:100B800009B0F0BDE78100003800002034000020EB
:100B90007047000010B50246094B00BF00F040F856
:100BA000002800D003E018465B1E0028F6D100BFE5
:100BB000044810430524240760622046416010BDAC
:100BC000102700000000695A052109078860704756
:100BD000014605221207106A8008800002460A4377
:100BE000104682B2024B1A4305231B071A62704754
:100BF0000000695A05210907086A0821084381B2E3
:100C0000024A114305221207116270470000695A17
:100C100005210907C968014305221207D160704701
:100C200005200007806AC007C00F704770477047F3
:100C300010B505200007406A002804D0012811D013
:100C4000022814D10FE005200007006A8007800FFA
:100C5000032803D11C481D49086002E01C481B49B9
:100C6000086004E003E01B481849086000BF00BFAB
:100C7000052000074068002809D0052000074068CB
:100C8000410012480068FFF737FA10490860052054
:100C90000007806800280AD005200007806841000E
:100CA0000D480068FFF728FA0B49086003E0074881
:100CB000006809490860094904480068FFF71CFA00
:100CC0000749086010BD0000006CDC0258000020DD
:100CD0000090D003409C00005C00002040420F00C8
:100CE0006000002010B5FFF7A3FF10BD10B500BFD6
:100CF00099201049C86300BF00BF086000BF00BF53
:100D0000486000BF00BF886000BF00BFC86000BF70
:100D100000BF086100BF0320FFF75AFFFFF76AFF1B
:100D200000210846FFF736FF0020FFF74DFFFFF7D1
:100D30007FFF10BDC0010050704770477047000032
:100D400010B54520000600690007000F2049086023
:100D5000084600684008086045200006006A1D49F2
:100D600008601B480068030000F0B8F80705060A91
:100D70000B2F2F142F0028E001201749086024E0D2
:100D800023E01448006813480068124800681148BE
:100D900000681AE00020114908600BE045200006B9
:100DA00000F08CF8C1B20D480468601C0B4A10605A
:100DB0000B48015545200006006AC007C00F0028F7
:100DC000ECD101200749086000BF00BF10BD000042
:100DD0004C0000205000002048000020540000205B
:100DE0006400002044000020FFB581B00446154691
:100DF0001E460A9FA06980098001A061A16928465A
:100E0000304338430143A161044909680809029944
:100E1000FFF772F9A06005B0F0BD00005C00002093
:100E2000C16A10221143C162704770B5049C9501DC
:100E30000E0135439E003543660035436D1C456108
:100E400070BDC16801221143C1607047C1680222B0
:100E50001143C1607047000008B51020FFF7D8FEAD
:100E60000020034603224B21C901009045200006C3
:100E7000FFF7BAFF45200006FFF7D2FF0120034627
:100E800000221146009045200006FFF7CEFF00BF6C
:100E900009200949C86000BF00BF08200649803901
:100EA000C86300BF45200006FFF7D0FF45200006BD
:100EB000FFF7C7FF08BD0000C000005001460868EA
:100EC000704770477047000010B5024A024900F0B1
:100ED00022F810BD350F00003C00002030B47446ED
:100EE000641E2578641CAB4204D3635D5B00E31889
:100EF00030BC18471D46F8E702E008C8121F08C1B9
:100F0000002AFAD170477047002001E001C1121F8A
:100F1000002AFBD17047F8B516460F460446002557
:100F200003E03946B047641C6D1C20780028F8D1D6
:100F30002846F8BD00BF45221206126A20231A4037
:100F4000002AF8D04522120650600A280BD100BFB3
:100F500045221206126A20231A40002AF8D00D22D8
:100F600045231B065A607047FFF7C0FEFFF75EFE81
:100F7000FFF7FBFB00BFFEE70000C90092015B0228
:100F80002403ED03B6047F0548061107D907A2081C
:100F90006A09330AFB0AC40B8C0C540D1C0EE30EB9
:100FA000AB0F72103A110112C8128F1355141C1591
:100FB000E215A8166E173318F918BE19821A471BC6
:100FC0000B1CCF1C931D571E1A1FDD1F9F20612174
:100FD0002322E522A62367242825E825A8266727BB
:100FE0002628E528A329612A1F2BDC2B992C552DB7
:100FF000112ECC2E872F4130FB30B5316E32263387
:10100000DF3396344D350436BA366F372438D93845
:101010008C39403AF23AA53B563C073DB83D683E14
:10102000173FC53F73402141CE417A422543D0430B
:101030007A442445CD4575461C47C34769480F4946
:10104000B449584AFB4A9D4B3F4CE04C814D204EE1
:10105000BF4E5D4FFB4F97503351CE5168520253F4
:101060009B533254C9546055F5558A561D57B05795
:101070004258D3586459F359825A0F5B9C5B285CE1
:10108000B35C3E5DC75D4F5ED75E5D5FE35F6860EA
:10109000EB606E61F0617162F1627063EE636C64CB
:1010A000E8646365DD655666CF664667BC6732688F
:1010B000A66819698B69FD696D6ADC6A4A6BB76B52
:1010C000236C8E6CF86C616DC96D306E966EFB6E24
:1010D0005E6FC16F22708370E27040719D71F97113
:1010E0005472AE7207735E73B5730A745F74B27430
:1010F00004755575A575F37541768D76D87622778A
:101100006B77B377FA773F788478C77809794A792B
:101110008979C879057A417A7C7AB67AEE7A267B23
:101120005C7B917BC57BF87B297C597C887CB67C79
:10113000E37C0E7D397D627D897DB07DD57DFA7D34
:101140001D7E3E7E5F7E7E7E9C7EB97ED57EEF7E5E
:10115000097F217F377F4D7F617F747F867F977FF7
:10116000A67FB47FC17FCD7FD87FE17FE97FF07F0D
:10117000F57FF97FFD7FFE7F9811000000000020C1
:1011800064000000F80E0000FC1100006400002064
:1011900024080000080F000000000000000000000C
:1011A000000000000000000000000000000000003F
:1011B00000000080000000000000000000000000AF
:1011C000000000000000000000000000000000001F
:1011D000802500000000000000000000000000006A
:1011E00000000000000000000000000000000000FF
:0C11F0000090D0030090D00340000000ED
:04000005000000C136
:00000001FF
