:020000040000FA
:1000000070080020D90000008D0900004D08000094
:1000100000000000000000000000000000000000E0
:100020000000000000000000000000009309000034
:1000300000000000000000008F0900005B0C0000C1
:1000400045080000ED0000004708000049080000D6
:100050004B080000EB000000690300004B010000AA
:10006000EB000000F10E00004D060000EB00000068
:100070004902000049010000EB000000690D00008A
:100080006D0D0000EB000000EB000000650D0000AE
:10009000670D0000EB000000EB000000EF0E000019
:1000A0005F080000EB00000091090000EB00000079
:1000B000EB000000EB000000EB000000BD0B0000B7
:1000C0000448854600F02EF800480047950F0000D0
:1000D000C046C046700800200548804705480047D4
:1000E000FEE7FEE7FEE7FEE7FEE7FEE7FEE70000CD
:1000F000110D0000C100000030B50B460146002084
:100100002022012409E00D46D5409D4205D31D461D
:100110009540491B2546954040191546521E002D15
:10012000F1DC30BD064C0125064E05E0E36807CC46
:100130002B430C3C98471034B442F7D3FFF7C4FF6D
:10014000A4110000C41100007047704755219B2284
:10015000D205D1621146896A0122824011439B2255
:10016000D20591620021D1627047000010B555237D
:100170009B24E405E36223461B68094C23409B242F
:10018000E405236023461C6803460B4313431C43CA
:100190009B23DB051C6000239B24E405E36210BD68
:1001A000C7CFFFFF55219B22D205D1621146C969F5
:1001B0000143D1610021D162704755219B22D205B4
:1001C000D1621146496B014351630021D1627047EE
:1001D00055219B22D205D162C11FF939002915D0C2
:1001E000FF390139002912D0FF225202891A04D0A6
:1001F00001221204891A12D100E000BF9B21C90517
:10020000896801439B22D205916009E000BF9B21D0
:10021000C905896801439B22D205916000E000BFB7
:1002200000BF00219B22D205D162704701469B206E
:10023000C005406A01228A401040002801D00120F8
:1002400070470020FCE7000010B51E20FFF7EEFF0E
:10025000002805D003A000F04DFE1E20FFF776FF1A
:1002600010BD00006F6B000055219B22D205D162AA
:10027000114609680722120491439B22D20511609E
:1002800011460968014311600021D1627047552071
:100290009B21C905C86208460068102108439B21BC
:1002A000C90508600020C8627047000010B5012031
:1002B000C00600F0C3FC0322120301210820FFF74F
:1002C00055FF00BF01200B49C86200BF0320400456
:1002D000FFF7CAFFFF200130FFF77AFF01208007F8
:1002E000FFF76BFF01208007FFF75CFFFFF7CFFFF1
:1002F00010BD0000400000500449C96802460832A1
:10030000012393401943014AD16070474000804265
:100310000449C968021D012393401943014AD16071
:1003200070470000400080420146064880680A4647
:100330000832012393401840002801D00120704763
:100340000020FCE7400080420146064880680A1D04
:10035000012393401840002801D00120704700205D
:10036000FCE700004000804210B50120FFF7ECFFE1
:10037000002802D00120FFF7CBFF0020FFF7D4FFB9
:10038000002809D10120FFF7CFFF002804D1022067
:10039000FFF7CAFF002808D00020FFF7ADFF0120BB
:1003A000FFF7AAFF0220FFF7A7FF10BD5520054960
:1003B00088630846C06840004008C8600020886321
:1003C000704700004000804A0449096B0246083229
:1003D000012393401943014A116370474000804A4A
:1003E00010B555220D4B9A630D4A9523DB051A6013
:1003F0001A46526884000F23A3409A439523DB05D5
:100400005A601A46526884000B46A3401A4395234B
:10041000DB055A600022014B9A6310BD4000804A00
:100420000101010010B555220A4B9A638BB2094AAB
:100430002C3A840013519522D205126903460833E1
:1004400001249C4022439523DB051A610022014BC5
:100450009A6310BD4000804A10B55522114B9A6333
:10046000104A143A8300D258130C1B040D4A143A54
:10047000840013518300D2588BB21A43094B143BAA
:1004800084001A519522D2051269034608330124CB
:100490009C4022439523DB051A610022014B9A639D
:1004A00010BD00004000804A70B55524074DAC6374
:1004B000CC0415042C439DB22C43044D1C358600FE
:1004C000AC510024014DAC6370BD00004000804A77
:1004D00010B555220D4B9A639522D205126943003F
:1004E000103303249C40A2439523DB051A611A466E
:1004F0001269430010330C469C4022439523DB05D0
:100500001A610022014B9A6310BD00004000804A2E
:100510005521094A91639521C90589680F229205E1
:1005200091439522D20591601146896801439160FB
:100530000021014A916370474000804A55211C4ABE
:100540009163C107C90F002903D10221014000298D
:1005500008D09521C905896801221204914395228A
:10056000D205916004210140002903D108210140F6
:10057000002908D09521C9058968012252049143B8
:100580009522D205916010210140002903D120213C
:100590000140002908D09521C905896801229204EB
:1005A00091439522D20591600021014A91637047E1
:1005B0004000804A5521064A91639521C905896802
:1005C00001439522D20591600021014A9163704751
:1005D0004000804A5521044A9163114689680143CD
:1005E00091600021916370474000804A5521054A7F
:1005F00091631146496A02021143024A5162002185
:10060000916370474000804A5521074A91639521C4
:10061000C9058968020211439522D2059160002123
:10062000014A9163704700004000804A0146064835
:10063000C06A0A460832012393401840002801D0BE
:10064000012070470020FCE74000804A10B50020E0
:10065000FFF7ECFF002804D000F0B8F80020FFF707
:10066000B3FE10BD10B501204005FFF751FF01207A
:10067000400500F0E3FA05210020FFF7B1FE052157
:100680000220FFF7ADFE05210420FFF7A9FE05219A
:100690000120FFF7A5FE05210320FFF7A1FE05219C
:1006A0000846FFF79DFE4B2189010020FFF7BAFEA7
:1006B0004B2189010220FFF7B5FE4B21890104205F
:1006C000FFF7B0FE4B2189010120FFF7ABFE4B2164
:1006D00089010320FFF7A6FE4B2189010520FFF7C2
:1006E000A1FE00210846FFF7B7FE00210220FFF718
:1006F000B3FE00210420FFF7AFFE00210120FFF729
:10070000ABFE00210320FFF7A7FE00210520FFF725
:10071000A3FE3F20FFF712FF3820FFF775FF3F20B1
:10072000FFF748FF00210846FFF7D2FE0021022014
:10073000FFF7CEFE00210420FFF7CAFE00210120B2
:10074000FFF7C6FE00210320FFF7C2FE00210520AF
:10075000FFF7BEFEFFF72AFE0120FFF747FF7D23CC
:10076000DB00002211461046FFF79EFE00BF062068
:100770000D49486000BF00BF086100BF00BF48616D
:1007800000BF00BF886100BF00BFC86100BF00BFDD
:1007900005498031C86100BF3F20FFF71BFF3F20A4
:1007A00000F004F810BD0000400000505521064A3A
:1007B00091639521C905C96801439522D205D1608D
:1007C0000021014A916370474000804A1CB5002017
:1007D000174908801748488017480088FF30F530CF
:1007E00000B2154908800020085E1449884202DDE5
:1007F000481C114908800E490A88684602804988C9
:1008000041800D480021415E009800F029F80C4914
:1008100001906846808808806846C08848800A88B9
:10082000684682804988C180019800F0B3F81CBDF9
:1008300016000020B80B000004000020FF7F00001D
:100840001A0000207047704770477047704710B516
:10085000FFF72CFDFFF706FF00F014FB10BD7047FB
:10086000F3B583B00C46204600F028F801906846A6
:100870000C21415E0422825E51430D460E21415EF1
:100880000622825E51430E46A819C01301B2684683
:1008900001800C21415E0622825E51430F460E21EB
:1008A000415E0422825E514302910298C01BC01334
:1008B00001B268464180009805B0F0BD18B5024607
:1008C0000120C003131899B20846CC17A40E2418AF
:1008D000A111084603242402204000282CD0FF3810
:1008E000013800283BD0FF380138002804D0FF38F9
:1008F0000138002844D10EE00806C00D224C245ACD
:1009000068464480C8B2FF24201A40001E4C245A76
:100910006846048035E0C8B2FF24201A40001A4C13
:10092000245A684644800806C00D174C205A40429D
:1009300004B26846048024E00806C00D124C205A18
:10094000404204B268464480C8B2FF24201A4000E6
:100950000D4C205A404204B26846048011E0C8B2EF
:10096000FF24201A4000084C205A404204B2684636
:1009700044800806C00D044C245A6846048000E0F8
:1009800000BF00BF009818BDA40F0000704770475B
:1009900070477047F1B588B069462020085E8449E9
:1009A0004843079069462220085E82490968484307
:1009B000404240000690069C069C07996018C10FB3
:1009C00009184E10069C0799601AC10F09184D109E
:1009D000002E62DA002D1EDA04207749087075496E
:1009E0000B68D9178A0FD11889107019C217920B8A
:1009F00012189214891804913046F117C90B09187E
:100A00004A1404998F1A2846E917C90B0918491482
:100A1000791A0591A1E0002C1FDC032066490870BB
:100A200064490B68D9178A0FD1188910601BC21747
:100A3000920B12189214891804912046E117C90BE1
:100A400009184A140499891A05912846E917C90B0F
:100A500009184A14059957187FE002205649087072
:100A600054490B68D9178A0FD1188910301BC21747
:100A7000920B12189214891805912046E117C90BA0
:100A800009184A140599511804913046F117C90BF9
:100A900009184A1404998F1A5FE0002D1EDB01200B
:100AA0004549087043490B68D9178A0FD118891036
:100AB0007019C217920B12189214891A05912846C0
:100AC000E917C90B09184A14059957183046F11748
:100AD000C90B09184914C91904913EE0002C1EDC09
:100AE00005203549087033490B68D9178A0FD1188A
:100AF0008910A01BC217920B121892148F1830463F
:100B0000F117C90B09184914C91904912046E117B6
:100B1000C90B09184A140499891A05911DE000208F
:100B20002549087023490B68D9178A0FD1188910F5
:100B3000281BC217920B121892148F182846E91717
:100B4000C90B09184914791A05912046E117C90BF8
:100B500009184A14059951180491B8B203900598E0
:100B600080B20290049880B201900399183100205D
:100B7000FFF772FC0398014618390320FFF76CFC5D
:100B8000029918310120FFF767FC029801461839D5
:100B90000420FFF761FC019918310220FFF75CFC8B
:100BA0000198014618390520FFF756FC09B0F0BD41
:100BB000E781000024000020200000207047000092
:100BC00010B50246094B00BF00F040F8002800D0E5
:100BD00003E018465B1E0028F6D100BF044810430E
:100BE0000524240760622046416010BD10270000E4
:100BF0000000695A052109078860704701460522EF
:100C00001207106A8008800002460A43104682B22A
:100C1000024B1A4305231B071A6270470000695AEA
:100C200005210907086A0821084381B2024A1143D5
:100C300005221207116270470000695A0521090751
:100C4000C968014305221207D160704705200007DB
:100C5000806AC007C00F70477047704710B5052005
:100C60000007406A002804D0012811D0022814D1BE
:100C70000FE005200007006A8007800F032803D1DA
:100C80001C481D49086002E01C481B49086004E03C
:100C900003E01B481849086000BF00BF052000079B
:100CA0004068002809D0052000074068410012482C
:100CB0000068FFF721FA10490860052000078068E6
:100CC00000280AD005200007806841000D48006810
:100CD000FFF712FA0B49086003E00748006809496A
:100CE0000860094904480068FFF706FA07490860E8
:100CF00010BD0000006CDC02440000200090D00316
:100D0000409C00004800002040420F004C000020A2
:100D100010B5FFF7A3FF10BD10B500BF9920104913
:100D2000C86300BF00BF086000BF00BF486000BFCD
:100D300000BF886000BF00BFC86000BF00BF08617F
:100D400000BF0320FFF75AFFFFF76AFF00210846A4
:100D5000FFF736FF0020FFF74DFFFFF77FFF10BDC5
:100D6000C0010050704770477047000010B5452023
:100D7000000600690007000F204908600846006867
:100D80004008086045200006006A1D4908601B48AD
:100D90000068030000F0B8F80705060A0B2F2F14AF
:100DA0002F0028E001201749086024E023E01448C0
:100DB00000681348006812480068114800681AE08B
:100DC0000020114908600BE04520000600F08CF877
:100DD000C1B20D480468601C0B4A10600B480155F5
:100DE00045200006006AC007C00F0028ECD1012092
:100DF0000749086000BF00BF10BD00003800002098
:100E00003C00002034000020400000205000002062
:100E100030000020FFB581B0044615461E460A9FEB
:100E2000A06980098001A061A16928463043384348
:100E30000143A1610449096808090299FFF75CF9B7
:100E4000A06005B0F0BD000048000020C16A10227B
:100E50001143C162704770B5049C95010E01354382
:100E60009E003543660035436D1C456170BDC16809
:100E700001221143C1607047C16802221143C16061
:100E80007047000008B51020FFF7D8FE0020034689
:100E900003224B21C901009045200006FFF7BAFF4D
:100EA00045200006FFF7D2FF01200346002211462D
:100EB000009045200006FFF7CEFF00BF092009493A
:100EC000C86000BF00BF082006498039C86300BF62
:100ED00045200006FFF7D0FF45200006FFF7C7FFBB
:100EE00008BD0000C0000050014608687047704708
:100EF0007047000010B5024A024900F022F810BD08
:100F0000610F00002800002030B47446641E25786C
:100F1000641CAB4204D3635D5B00E31830BC18472C
:100F20001D46F8E702E008C8121F08C1002AFAD1DE
:100F300070477047002001E001C1121F002AFBD159
:100F40007047F8B516460F460446002503E03946BB
:100F5000B047641C6D1C20780028F8D12846F8BDE5
:100F600000BF45221206126A20231A40002AF8D038
:100F70004522120650600A280BD100BF45221206F6
:100F8000126A20231A40002AF8D00D2245231B069E
:100F90005A607047FFF7C0FEFFF75EFEFFF757FC91
:100FA00000BFFEE70000C90092015B022403ED03CD
:100FB000B6047F0548061107D907A2086A09330A53
:100FC000FB0AC40B8C0C540D1C0EE30EAB0F7210FD
:100FD0003A110112C8128F1355141C15E215A816E8
:100FE0006E173318F918BE19821A471B0B1CCF1C39
:100FF000931D571E1A1FDD1F9F2061212322E5220A
:10100000A62367242825E825A82667272628E5287B
:10101000A329612A1F2BDC2B992C552D112ECC2EA8
:10102000872F4130FB30B5316E322633DF339634B3
:101030004D350436BA366F372438D9388C39403AB2
:10104000F23AA53B563C073DB83D683E173FC53FC9
:1010500073402141CE417A422543D0437A4424450E
:10106000CD4575461C47C34769480F49B449584A9E
:10107000FB4A9D4B3F4CE04C814D204EBF4E5D4F97
:10108000FB4F97503351CE51685202539B53325409
:10109000C9546055F5558A561D57B0574258D35814
:1010A0006459F359825A0F5B9C5B285CB35C3E5DCC
:1010B000C75D4F5ED75E5D5FE35F6860EB606E614A
:1010C000F0617162F1627063EE636C64E8646365A1
:1010D000DD655666CF664667BC673268A6681969E3
:1010E0008B69FD696D6ADC6A4A6BB76B236C8E6C29
:1010F000F86C616DC96D306E966EFB6E5E6FC16F80
:1011000022708370E27040719D71F9715472AE72F9
:1011100007735E73B5730A745F74B27404755575A2
:10112000A575F37541768D76D87622776B77B37790
:10113000FA773F788478C77809794A798979C879C4
:10114000057A417A7C7AB67AEE7A267B5C7B917B53
:10115000C57BF87B297C597C887CB67CE37C0E7D42
:10116000397D627D897DB07DD57DFA7D1D7E3E7E97
:101170005F7E7E7E9C7EB97ED57EEF7E097F217F5D
:10118000377F4D7F617F747F867F977FA67FB47F97
:10119000C17FCD7FD87FE17FE97FF07FF57FF97F49
:1011A000FD7FFE7FC4110000000000205000000001
:1011B000240F00001412000050000020200800003E
:1011C000340F00000000000000800000000000005C
:1011D000000000000000000000000000000000000F
:1011E000000000000000000080250000000000005A
:1011F00000000000000000000000000000000000EF
:1012000000000000000000000090D0030090D00318
:04121000400000009A
:04000005000000C136
:00000001FF
